:03000000020008F3
:03007C000200037C
:0500030012012D80FE3A
:08007F00AA82AB837C007D0026
:0E008700C3EC9AED9B50070CBC00F50D80F207
:010095002248
:06009600120359020B7475
:07009C0075080375090A75E0
:0600A3000A0A750B00754E
:0A00A9000C057A007B307C007533F3
:0A00B3000075341D75350F758200CD
:0E00BD00C002C003C004120BE9120B3BD004BA
:0400CB00D003D0028C
:0D00CF008A828B838CF0C002C003C0041233
:0600DC0008A185822F90AF
:0E00E200000875F040120822AD82D004D00351
:0E00F000D002BD020FC002C003C004120B3BC1
:0600FE00D004D003D00283
:0E010400904E20C002C003C00412007FD00441
:0A011200D003D0027401B50BB475E0
:03011C003A287509
:03011F003B10751D
:090122003C807539077582030267
:02012B000D3590
:06012D0012009612009C76
:0201330080FE4C
:0E102800204C652073657270656E74206573D0
:0810360074206D6F727420003C
:06006100750D00750E2074
:0A013500850D82850E83A3E0FA53C6
:06013F000203BA03F122E5
:0C014500AA82C002120135D002850D8292
:07015100850E83A3EAF022F2
:0B015800AA82C002120135850D8285CD
:060163000E83E50FF0120F
:080169000135D002850D8285ED
:060171000E83A3EAF02258
:0B017700AA82C002120135850D8285AE
:060182000E83E510F012EF
:060188000135850D8285A2
:06018E000E83E511F012E2
:080194000135D002850D8285C2
:06019C000E83A3EAF0222D
:0A01A200AA82C002120135AB0DACB9
:0A01AC000EAD128B828C83EDF01271
:0501B6000135AB0DACAA
:0801BB000E90001375F04012D4
:0D01C30010088B828C83F0120135D002856C
:0901D0000D82850E83A3EAF022E2
:0A01D90085821285831375822412BB
:0401E30001A28514DC
:0701E7000F7582C0020158F0
:0A01EE0085821285831375822412A6
:0901F80001A27582C112014585C6
:090201000D82850E83E0F58222D6
:0A020A00850D82850E83A3E0FA53F0
:060214000208BA08F12205
:07021A0085821A85831B8514
:030221001A128529
:060224001B137582241279
:0C022A0001A27582B01201457C007D002D
:0A023600C3EC9518ED95195037053B
:060240001AE4B51A0205E4
:010246001B9C
:0C024700C004C00512020AD005D004AEAD
:050253000DAF0EEC25CB
:0702580015F8ED3516F9AAB7
:0C025F0017888289838AF0121008F88E3C
:0B026B00828F83F00CBC00C30D80C02C
:0A0276007582B2120145851A8285D7
:030280001B8322BB
:0A028300AA82AB838A128B137582E6
:0E028D0024C002C0031201A27582B012014506
:08029B00D003D0027C007D00BD
:0A02A300C3EC951DED951E50280ACE
:0402AD00BA00010B87
:0E02B100C002C003C004C00512020AD005D06E
:0A02BF0004D003D002850D82850EE5
:0B02C90083E51CF00CBC00D20D80CFC0
:0E02D4007582B2C002C003120145D003D002F1
:0502E2008A828B8322DB
:0C02E700AA82E51F75F01EA4FBACF07DA0
:0A02F30000EA2BF582ED3CF58322B2
:0402FD0085201F1227
:0403010002E7852169
:04030500140201D904
:0403090085221F1218
:05030D0002E70201EE11
:09031200E4F512F51375824012A6
:06031B0001A2751200753D
:0903210013027582421201A2755B
:09032A0010037511007582221206
:06033300017775101E7534
:0903390011007582411201777573
:09034200101E75110075824312B2
:0C034B00017775829C12014575828002CA
:0203570001455E
:05006700E4F523F5247F
:030359000203128A
:0C035C00AA827B00E52575F01EA42AF59E
:0703680023EB35F0F5242220
:07036F00AA82BAE0028078C7
:05037600BAE902805904
:05037B00BA09028047F1
:05038000BA0A0280072B
:05038500BA0D0280101A
:02038A00807C75
:08038C00741E2523F523E4355E
:0403940024F5240226
:0203980004223D
:07039A0075431E7544008548
:0803A1002382852483C00212AF
:0703A9000ED8858223858335
:0303B0002485237E
:0303B3004385245B
:0903B6004490001E120F658582BF
:0803BF0023858324D002805B3A
:0803C70074032523F523E4353E
:0503CF0024F524804E1E
:0703D40085238285248305C7
:0603DB0023E4B523020536
:0103E10024F7
:0C03E200751462C0021201D9D0028034F0
:0703EE0085238285248305AD
:0603F50023E4B52302051C
:0103FB0024DD
:0C03FC00751465C0021201D9D002801AED
:070408008523828524830592
:06040F0023E4B523020501
:0104150024C2
:0C041600EA24E0F514C0021201D9D00263
:030422008A8222A9
:06006C0075260075270057
:0A042500AA82E5262400F582E434E3
:08042F0010F583EAF005262216
:08043700E5272400F582E434FE
:0A043F0010F583E0FA05278A8222F7
:070449007526007527002253
:0E045000AA82AB83ACF074012AFDE43BFE8C63
:0E045E00078D828E838FF0121008F582C00287
:0E046C00C003C004120425D004D003D00274D3
:0C047A00012AFDE43BFE8C0774012DF507
:0604860028E43EF5298F79
:05048C002A852882858D
:060491002983852AF01208
:0E0497001008F582C002C003C004C005C006F4
:0E04A500C007120425D007D006D005D004D021
:0E04B30003D0028A828B838CF0121008FA7438
:0404C10003B502007D
:0304C500500122C1
:0704C800EA2A2A9004CF7319
:0704CF000204DB0204F60247
:0504D6000511020526DE
:0704DB008528828529838535
:0804E2002AF0121008FA1A8535
:0604EA00288285298385AC
:0604F0002AF0EA020F4CA5
:0704F600852882852983851A
:0804FD002AF0121008FA0A852A
:0605050028828529838590
:06050B002AF0EA020F4C89
:0E0511008D828E838FF0121008FA1A8D828E62
:07051F00838FF0EA020F4C8C
:0E0526008D828E838FF0121008FA0A8D828E5D
:07053400838FF0EA020F4C77
:0E053B00AA82AB83ACF074012AFDE43BFE8C77
:0E054900078D828E838FF0121008FD74012A38
:0B055700FEE43BFF8C000EBE00010F15
:0C0562008E828F8388F0121008F5228D25
:0E056E0082C002C003C004120309AD82D00493
:09057C00D003D002BD9102802BD6
:05058500BD9502803A63
:05058A00BDA10280216B
:05058F00BDA202801C6A
:05059400BDA302801769
:05059900BDA402801268
:05059E00BDA502800D67
:0505A300BDA602800866
:0505A800BDA702800365
:0305AD00BDA8489E
:0E05B00074032AFDE43BFE8C078D828E838F40
:0605BE00F07401020F4C75
:0E05C40074032AFDE43BFE8C078D828E838F2C
:0E05D200F07402120F4C74042AFDE43BFE8C00
:0E05E000078D828E838FF0121008F80808082D
:0A05EE008D828E838FF0E8020F4C1F
:0E05F80074032AFAE43BFB8A828B838CF0E4C6
:03060600020F4C94
:0806090085822B85832C85F00E
:080611002D7403252BFDE435D7
:0A0619002CFEAF2D8D828E838FF032
:0C062300121008F8B801447401252BF8EF
:0A062F00E4352CF9AA2D8882898396
:0C0639008AF0121008F87401252BFAE476
:0A064500352CFBAC2D0ABA00010BA6
:0C064F008A828B838CF0121008F5207555
:0B065B0021948882C005C006C0071271
:0806660002FDD007D006D0050B
:0E066E008D828E838FF0121008703874012573
:07067C002BFAE4352CFBAC66
:0C0683002D8A828B838CF0121008FA7410
:09068F0001252BFBE4352CFCAD28
:060698002D0BBB00010C5C
:0C069E008B828C838DF0121008F5207503
:0706AA0021938A820202FD88
:0106B1002226
:0E06B200AA82AB83ACF074032AFDE43BFE8CFD
:0E06C000078D828E838FF0121008FDBD02425E
:0E06CE0074012AFDE43BFE8C078D828E838F23
:0E06DC00F0121008FD74012AFEE43BFF8C00B2
:0506EA000EBE00010F2F
:0C06EF008E828F8388F0121008F52075B1
:0B06FB0021928D82C002C003C00412D7
:0A07060002FDD004D003D0028040B1
:0E07100074012AFDE43BFE8C078D828E838FE0
:0E071E00F0121008FD74012AFEE43BFF8C006F
:05072C000EBE00010FEC
:0C0731008E828F8388F0121008F520756E
:0B073D0021918D82C002C003C0041295
:0807480002FDD004D003D00231
:0E07500074042AFAE43BFB8A828B838CF0123D
:0E075E0010087023C002C003C004120437AD9F
:0C076C0082C005120437858220D005757C
:0C07780021008D821202FDD004D003D0BD
:010784000272
:0E0785008A828B838CF0121008FD600B1D8A97
:09079300828B838CF0ED020F4C07
:01079C00223A
:0C079D00AA82AB83ACF07401B52E028080
:0107A900450A
:0707AA007402B52E02805617
:0707B1007403B52E02801E47
:0C07B8007404B52E648A828B838CF012CE
:0707C4001008FDBD02012237
:0B07CB008A828B838CF07403020F4CB9
:0E07D6008A828B838CF0121008FDBD03012275
:0B07E4008A828B838CF07402020F4CA1
:0E07EF008A828B838CF0121008FDBD0101225E
:0A07FD008A828B838CF0E4020F4C1B
:0E0807008A828B838CF0121008FD7E004E60FA
:0C0815000B8A828B838CF07401020F4C64
:0108210022B4
:0D082200AA82AB83ACF0C002C003C0041278
:0A082F0006B2D004D003D002852FDA
:0C0839002E8A828B838CF0C002C003C0AA
:0E0845000412079DD004D003D0028A828B8358
:0E0853008CF0C002C003C004120450D004D0C8
:0E08610003D0028A828B838CF0C002C003C0D9
:0E086F000412053BD004D003D0028A828B8392
:0E087D008CF0C002C003C004120609D004D0E3
:0E088B0003D00274032AFAE43BFB8A828B83BB
:080899008CF0121008F5822218
:0E08A100AA82AB83ACF0121008FDBDFD0475F9
:0308AF00820122A1
:0E08B20074012AFDE43BFE8C078D828E838F3D
:0C08C000F0121008FDBDFE04758203223A
:0708CC00BDFB04758204224C
:0E08D30074022AFAE43BFB8A828B838CF012BB
:0A08E1001008FABAFD047582022225
:0408EB0075820022F0
:0E08EF00AA82AB83ACF0121008FD74012AFE41
:0E08FD00E43BFF8C008E828F8388F01210087F
:0C090B00F5228D82C002C003C004C006AB
:0E091700C007C000120309E582D000D007D04F
:0C09250006D004D003D0027003020ACBFD
:0E0931008A828B838CF0121008FD0D8E828F4F
:0C093F008388F0121008F5228D82C0029F
:0E094B00C003C004C006C007C000120309E5C7
:0E09590082D000D007D006D004D003D00270A8
:0E096700188A828B838CF0121008FD0D8A8294
:0B0975008B838CF0ED120F4C020AAED9
:0E0980008A828B838CF0121008FD1D8E828FF0
:0C098E008388F0121008F5228D82C00250
:0E099A00C003C004C006C007C000120309E578
:0E09A80082D000D007D006D004D003D0027059
:0E09B600188A828B838CF0121008FD1D8A8235
:0B09C4008B838CF0ED120F4C020AAE8A
:0E09CF008A828B838CF0121008FD8E828F833B
:0C09DD0088F012100804F5228D82C00280
:0E09E900C003C004C006C007C000120309E529
:0E09F70082D000D007D006D004D003D002700A
:0E0A0500188E828F8388F0121008FD0D8E82ED
:0B0A13008F8388F0ED120F4C020AAE3A
:0E0A1E008A828B838CF0121008FD8E828F83EB
:0C0A2C0088F012100814F5228D82C00220
:0E0A3800C003C004C006C007C000120309E5D9
:0E0A460082D000D007D006D004D003D00270BA
:0E0A5400178E828F8388F0121008FD1D8E828F
:0A0A62008F8388F0ED120F4C8042E4
:0E0A6C008A828B838CF0C002C003C004C006D7
:0E0A7A00C007C000120AE8D000D007D006D096
:0E0A880004D003D0028A828B838CF0C002C09F
:0E0A960003C004C006C007C0001208EFD00065
:0A0AA400D007D006D004D003D00222
:0E0AAE008A828B838CF0121008FD8E828F835B
:080ABC0088F0121008F5207506
:070AC40021958D820202FD65
:0E0ACB008A828B838CF0121008FA8E828F8341
:080AD90088F0121008F52075E9
:070AE10021958A820202FD4B
:0A0AE800AA82AB83ACF0753D1D75CA
:0C0AF2003E00900000C002C003C00412CF
:0E0AFE000EA1AD82D004D003D0028A828B8379
:0B0B0C008CF0ED120F4C0ABA00010B38
:0A0B1700753D0F753E00900000C010
:0E0B210002C003C004120EA1AD82D004D003A6
:0C0B2F00D0028A828B838CF0ED020F4C08
:0A0B3B0090003075F040120AE890B7
:080B4500003075F0400208EFDA
:0C0B4D00E58275F008A4FAABF08A158B65
:050B590016751700E510
:0C0B5E003275F008A4F582741825F0F53B
:080B6A008375180875190002DB
:020B7200021A65
:0A0B74007532A1758200120B4D7559
:090B7E0032A2758201120B4D75C3
:090B870032A3758202120B4D75B8
:090B900032A4758203120B4D75AD
:090B990032A5758204120B4D75A2
:090BA20032A6758205120B4D7597
:090BAB0032A7758206120B4D758C
:090BB40032A8758207120B4D7581
:090BBD003291758208120B4D758E
:090BC6003292758209120B4D7583
:090BCF00329375820A120B4D7578
:090BD800329475820B120B4D756D
:080BE100329575820C020B4DE8
:060BE900AA82853320758D
:0A0BEF0021A18A82C0021202FD85D6
:030BF90033207531
:060BFC0021A385348212E2
:070C020002FDD002EA04FB31
:040C0900EBB5340013
:060C0D005016853320752E
:0C0C130021A28B82C002C0031202FDD09F
:060C1F0003D0020B80E48B
:040C2500853520757C
:0A0C290021A68A82C0021202FD8596
:030C3300352075F4
:060C360021A885348212A2
:070C3C0002FDD002EA04FBF7
:040C4300EBB53400D9
:060C4700501685352075F2
:0C0C4D0021A78B82C002C0031202FDD060
:060C590003D0020B80E451
:040C5F00E53304FB7A
:040C6300EBB53500B8
:080C670050288B207521A585A2
:0C0C6F003482C002C0031202FDD003D08A
:0A0C7B00028B207521A48A82C002BA
:0C0C8500C0031202FDD003D0020B80D28D
:010C91002240
:040C9200AA828A03A5
:050C9600E537B5030085
:060C9B00401685362075AD
:0C0CA10021008B82C002C0031202FDD0B3
:060CAD0003D0020B80E3FE
:020CB3008A03B2
:050CB500E537B5030066
:060CBA004016853820758C
:0C0CC00021008B82C002C0031202FDD094
:060CCC0003D0020B80E3DF
:070CD200E53604FCEA04FD15
:040CD900ECB538003E
:080CDD0050558C2075210085A3
:0C0CE5003782C002C004C0051202FDD01E
:0A0CF10005D004D0028C207521000C
:0E0CFB008A82C002C004C0051202FDD005D0DE
:050D090004D0028D037F
:040D0E00EBB537000A
:0A0D1200501D8C207521008B82C05B
:0E0D1C0002C003C004C0051202FDD005D004C1
:070D2A00D003D0020B80DDB5
:030D31000C80A58E
:010D3400229C
:0A0D3500AA827B007C00853A8285CB
:0A0D3F003B83853CF0C002C003C0F6
:0E0D490004120FF0AD82D004D003D002ED2AC8
:090D570004FD74022539FE853902
:0A0D6000207521A18A82C002C003A1
:0E0D6A00C004C005C0061202FDD006D00585EB
:030D7800392075AA
:0C0D7B0021A38D82C005C0061202FDD02D
:0C0D870006D005D004D003D002EA04FF1F
:040D9300EFB50500B3
:060D97005026853920758D
:0C0D9D0021A28F82C002C003C004C00568
:0E0DA900C006C0071202FDD007D006D005D04C
:080DB70004D003D0020F80D428
:0A0DBF008E207521A68A82C002C0B2
:0E0DC90003C004C005C0061202FDD006D0050E
:0A0DD7008E207521A88D82C005C092
:0E0DE100061202FDD006D005D004D003D002C9
:030DEF00EA04FF14
:040DF200EFB5050054
:0A0DF60050258E207521A78F82C0C2
:0E0E000002C003C004C005C006C0071202FDF8
:0E0E0E00D007D006D005D004D003D0020F804C
:010E1C00D500
:070E1D00E53904FE8E20758B
:0C0E240021A58D82C002C003C004C005DF
:0E0E3000C0061202FDD006D005D004D003D0BB
:0A0E3E00028E207521A48A82C002F2
:0E0E4800C003C004C0051202FDD005D004D0C6
:0A0E560003D002EA04FFE53904FAB4
:040E6000EFB50500E5
:0A0E6400503AEB253AFEEC353BF85E
:0C0E6E00A93C8E82888389F012100824B1
:0A0E7A00E0F5218A208F82C002C03B
:0E0E840003C004C005C0071202FDD007D00550
:0B0E9200D004D003D0020BBB00010C09
:030E9D000F80C003
:010EA000222F
:040EA100AA82AB83F3
:0E0EA500C002C003120F01AC82D003D0028C39
:0E0EB300057E00C3ED9AEE64808BF063F08044
:0A0EC10095F040E0E53D9DE53E643C
:0D0ECB00808EF063F08095F040D08C822284
:050ED8007A10E4FBFCB0
:0E0EDD00E58225E0F582E58333F583EB33FBF8
:0A0EEB00EC33FCEB9543F5F0EC95B9
:090EF500444006FCABF04382010D
:030EFE00DADD2218
:07007200753F01E4F540F5C4
:0300790041F5420C
:040F0100853F438560
:030F0500404485E0
:030F0800414585DB
:0A0F0B004246904E6D75F0C6744129
:0E0F1500120F82AA82AB83ACF0FD74392AF56C
:090F23003F74303BF540E43CF55D
:060F2C0041E43DF542AA7C
:0A0F320041AB428A82747F5BF583B5
:010F3C002292
:090F3D00AA82AB838A3F8B407548
:060F46004100754200228B
:06003700E478FFF6D8FD9D
:080015007900E94400601B7A48
:05001D000090103E7888
:03002200FA75A0CC
:0A00250010E493F2A308B8000205EE
:08002F00A0D9F4DAF275A0FF7C
:0E0F4C0020F71030F6118883A88220F507F6F2
:050F5A00A8837583006F
:010F5F00226F
:030F6000F280F725
:020F6300F0227A
:0B0F6500E5828543F0A4C582C0F08542
:0A0F700044F0A4D0F025F0C58385FD
:080F7A0043F0A42583F5832256
:0C0F8200AAF0FBE5828543F0A4FCADF072
:0C0F8E00E5838543F0A42DFDE435F0FE62
:0C0F9A00E5828544F0A42DFDE5F03EFE4C
:0C0FA600E433FFEA8543F0A42EFEE5F0E2
:0C0FB2003FFFE5838544F0A42EFEE5F02F
:0C0FBE003FFFE5828545F0A42EFEE5F023
:0B0FCA003FFFEB8543F0A42FFFEA85FA
:0A0FD50044F0A42FFFE5838545F0EA
:0C0FDF00A42FFFE5828546F0A42F8EF0C1
:050FEB008D838C8222C1
:08003D007800E84400600A7934
:030045000075A0A3
:0600480010E4F309D8FCEE
:08004E0078FAE84400600C7927
:0B00560001901000E4F0A3D8FCD9FAE0
:040FF000AA82AB83A3
:080FF4001210086003A380F84D
:0C0FFC00C3E5829AF582E5839BF5832211
:03000800758146B9
:0A000B00121024E5826003020003D6
:0E10080020F71430F6148883A88220F507E63E
:06101600A883758300228F
:03101C00E280F778
:03101F00E4932235
:02102200E022CA
:0410240075820022AF
:00000001FF
