:03000000020008F3
:0300610002000397
:0500030012006480FE04
:0E00640012049A120945AA82AB83C002C0039F
:0E007200121E05AC82AD83D003D002EC2AFA38
:0E008000ED3BFBC002C003122055AC82AD83E5
:0E008E00D003D002EC2AFAED3BFBC002C00307
:0E009C001225DFAC82AD83D003D002EC2AFA2D
:0E00AA00ED3BFBC002C00312319AAC82AD8365
:0E00B800D003D002EC2AFAED3BFBC002C003DD
:0E00C600123269AC82AD83D003D002EC2AFA6C
:0C00D400ED3BFBC002C00374B2C0E0743E
:0C00E0003DC0E07480C0E012357CE5817A
:0400EC0024FBF5817B
:0200F00080FE90
:0E3DB200256420746573747320656E2065723D
:053DC000726575720040
:0E00F200901380E0FAA3E0FB8A828B83A3E0E8
:08010000FA530203BA03EB22DB
:0A010800E582901000F01200F29062
:0C0112001380E0FAA3E0FB0ABA00010B26
:0A011E00901000E08A828B83F0222B
:0A012800E582901002F01200F29040
:0E0132001380E0FAA3E0FB901001E08A828BBC
:0E01400083F01200F2901380E0FAA3E0FB0AB5
:04014E00BA00010BE7
:0A015200901002E08A828B83F022F5
:0A015C00E582901005F01200F29009
:0E0166001380E0FAA3E0FB901003E08A828B86
:0E01740083F01200F2901380E0FAA3E0FB90FB
:0C0182001004E08A828B83F01200F290DF
:0C018E001380E0FAA3E0FB0ABA00010BAA
:0A019A00901005E08A828B83F022AA
:0A01A400E582901008F09010097435
:0A01AE0006F0A37410F0A3E4F012B1
:0B01B80000F2901380E0FAA3E0FB903F
:0E01C3001009E0FCA3E0FDA3E0FE8C828D831A
:0E01D1008EF0123D928A828B83F0C004C0052E
:0E01DF00C0061200F2D006D005D004901380A6
:0A01ED00E0FAA3E0FB0CBC00010DDA
:0E01F7008C828D838EF0123D928A828B83F073
:0E0205001200F2901380E0FAA3E0FB0ABA00A8
:02021300010BDD
:0A021500901008E08A828B83F0222B
:0D021F00AA83E58290100DF0A3CAF0FB90B9
:0E022C001006EAF0A3EBF07582241201A490F4
:0B023A00100CE0901001F07582C00273
:0202450001288E
:0D024700AA83E58290100FF0A3CAF0FB908F
:0E0254001006EAF0A3EBF07582241201A475E7
:0E02620082C1120108901380E0FAA3E0FB8A2B
:07027000828B83E0F582227E
:0E027700901380E0FAA3E0FB8A828B83A3E061
:08028500FA530208BA08EB224B
:0D028D00AA83E582901016F0A3CAF0FB9042
:0E029A001006EAF0A3EBF07582241201A475A1
:0D02A80082B0120108901018E4F0A3F0904D
:0E02B5001011E0FAA3E0FBA3E0FC901014E0AF
:0402C300FDA3E0FEB9
:0E02C700901018E0FFA3E0F8C3EF9DE89E50F2
:0E02D50062C005C006901016E02401F0A3E000
:0E02E3003400F0C002C003C004C005C006C055
:0E02F10007C000120277D000D007D006D0055B
:0C02FF00D004D003D002901380E0F5087A
:0C030B00A3E0F509EF2AFEE83BFD8C01A1
:0C0317008E828D8389F0123D9285088251
:0C032300850983F090101874012FF0E49D
:09032F0038A3F0D006D005808F40
:0E0338007582B2120108901016E0FAA3E08A56
:0403460082F5832297
:0D034A00AA83E58290101DF0A3CAF0FB907D
:0E0357001006EAF0A3EBF07582241201A475E3
:0D03650082B012010890101FE4F0A3F09088
:0C037200101AE0FA90101BE0FBA3E0FC66
:0E037E0090101FE0FDA3E0FEC3ED9BEE9C502F
:0E038C003E90101DE02401F0A3E03400F0C00C
:0E039A0002C003C004C005C006120277D006E0
:0E03A800D005D004D003D002901380E0FFA354
:0E03B600E0F88F828883EAF090101F74012D0A
:0703C400F0E43EA3F080B35A
:0E03CB007582B212010890101DE0FAA3E08ABC
:0403D90082F5832204
:0E03DD00E582901022F0901021E075F01EA431
:0E03EB00FAABF0901022E0FC7D00EC2AFAED57
:0603F9003B8A82F583221D
:0C03FF00E582901025F0FA901023E090A9
:0D040B001021F08A821203DDAA82AB8390DB
:0C0418001024E090100CF08A828B83020C
:02042400021FB5
:0C042600E582901027F0FA901026E0907C
:0B0432001021F08A821203DDAB830270
:02043D00024774
:0E043F00901006E4F0A3F07582401201A49024
:0E044D001006E4F0A37402F07582421201A4BE
:0E045B009010037403F0901004E4F0758222F8
:0A04690012015C901003741EF09065
:0B0473001004E4F075824112015C905F
:0E047E001003741EF0901004E4F07582431217
:0C048C00015C75829C12010875828002E0
:02049800010859
:023F810000201E
:03049A0002043F1A
:0E049D00E582901029F0FA7B00901028E0759F
:0E04AB00F01EA49013822AF0EB35F0A3F0228D
:0D04B900E58290102AF0FABAE00302057EF9
:0604C600BAE9030205582B
:0504CC00BA0902807274
:0504D100BA0A028008D8
:0504D600BA0D028019BF
:0304DB000205A473
:0E04DE00901382E0FBA3E0FC901382741E2BAF
:0804EC00F0E43CA3F00205C995
:0E04F400901382E0FBA3E0FC90133E741EF018
:0E050200A3E4F08B828C83C00212326CE5827F
:0E0510008583F0901382F0A3E5F0F090138243
:0E051E00E0FBA3E0FC901347EBF0A3ECF090A1
:0D052C00001E123393E5828583F0D002900B
:0A0539001382F0A3E5F0F00205C9FB
:0E054300901382E0FBA3E0FC90138274032B64
:07055100F0E43CA3F080710F
:0E055800901382E0FBA3E0FC90138274012B51
:0E056600F0E43CA3F090100C7462F08B828CD9
:0A05740083C00212021FD002804B68
:0E057E00901382E0FBA3E0FC90138274012B2B
:0E058C00F0E43CA3F090100C7465F08B828CB0
:0A059A0083C00212021FD002802568
:0E05A400901382E0FBA3E0FC90138274012B05
:0E05B200F0E43CA3F0EA24E090100CF08B8201
:0905C0008C83C00212021FD0025C
:0305C9008A822201
:023F830000003C
:0D05CC00AA83E582901030F0A3CAF0FB90E6
:0E05D900102BE0FCA3E0FDEAB50406EBB5052F
:0305E70002802F60
:0E05EA00C002C003C004C00590102DE0C0E0A8
:0C05F800A3E0C0E0A3E0C0E074C5C0E0D8
:0C060400743DC0E07480C0E012357CE55D
:090610008124F6F581900001221D
:04061900900000222B
:0D061D00AA83E582901037F0A3CAF0FB908D
:0E062A001032E0FCA3E0FDEAB5042FEBB505AD
:0E0638002BC004C005901034E0C0E0A3E0C069
:0A064600E0A3E0C0E074E1C0E0743E
:0C0650003DC0E07480C0E012357CE58104
:08065C0024F8F5819000012251
:0406640090000022E0
:0E3DC50025733A20617474656E647520256460
:0E3DD3002C2074726F7576E92025640D0A00AD
:0E3DE10025733A206E65206465767261697400
:0E3DEF0020706173206567616C20612025647F
:033DFD000D0A00AC
:0C066800E582901133F0901384E0FA2436
:0706740039FBE43410FC9097
:0E067B001133E08B828C83F0901384EA04F03C
:01068900224E
:0B068A00901385E0FA2439F582E43477
:0906950010F583E0901134F0909F
:0C069E001385EA04F0901134E0F582228C
:0A06AA00901384E4F0901385F02211
:0E06B40075820112066812068AE582FA3395F5
:0E06C200E0FB90102B7401F0A3E4F090102DDB
:0A06D0007400F0A3743EF0A37480E0
:0E06DA00F08A828B831205CCAA82AB837582D4
:0E06E80014C002C00312066875821E12066856
:0E06F60075822812066812068AE582FC33958A
:0E070400E0FD90102B7414F0A3E4F090102D83
:0A0712007406F0A3743EF0A3748097
:0E071C00F08C828D831205CCAC82AD83D003AD
:0D072A00D002EC2AFAED3BFBC002C0031226
:0E073700068AE582FC3395E0FD90102B741EBF
:0C074500F0A3E4F090102D740CF0A374ED
:0B0751003EF0A37480F08C828D8312B8
:0E075C0005CCAC82AD83D003D002EC2AFAEDBE
:0E076A003BFBC002C00312068AE582FC3395F9
:0E077800E0FD90102B7428F0A3E4F090102DFB
:0A078600740CF0A3743EF0A374801D
:0E079000F08C828D831205CCAC82AD83D00339
:0C079E00D002EC2AFAED3B8A82F583229F
:0D07AA0075820E12066875820F1206681225
:0907B70006AA75821012066812F0
:0E07C000068AE582FA3395E0FB90102B741048
:0C07CE00F0A3E4F090102D7412F0A3745E
:0B07DA003EF0A37480F08A828B830243
:0207E50005CC41
:0A07E7001206AA901135E4F0A3F009
:0E07F100901135E0FAA3E0FBC3EA94FAEB6442
:0E07FF00809480502890134D7414F0A3E4F001
:0E080D008A828B83C002C00312341F12066859
:0E081B00D003D00290113574012AF0E43BA303
:03082900F080C597
:07082C00901135E4F0A3F088
:0E083300901135E0FAA3E0FBC3EA94FAEB64FF
:0E084100809480506EC002C00312068AAC8202
:0E084F00D003D002EC3395E0FD90134D7414ED
:0E085D00F0A3E4F08A828B83C002C003C004C3
:0E086B00C00512341FAE82AF83D005D00490BA
:0B087900102BEEF0A3EFF090102D7498
:0A08840019F0A3743EF0A37480F095
:0E088E008C828D831205CCE5828583F0D00329
:0A089C00D00245F060049000012234
:0E08A60090113574012AF0E43BA3F0020833F0
:0408B400900000228E
:0908B800901137747DF0A3E4F007
:0E08C100901137E0FAA3E0FBC3EA94F4EB6475
:0E08CF00809481506D90134D7414F0A3E4F0EA
:0E08DD008A828B83C002C00312341FAC82AD2E
:0D08EB00838C068E82C004C00512066812C0
:0E08F800068AAE82D005D004EE3395E0FF9064
:0B090600102BECF0A3EDF090102D740E
:0A09110020F0A3743EF0A37480F000
:0E091B008E828F831205CCE5828583F0D00397
:0A092900D00245F0600490000122A6
:0E09330090113774012AF0E43BA3F00208C1D2
:040941009000002200
:0E0945001206B4AA82AB83C002C0031207AA36
:0E095300AC82AD83D003D002EC2AFAED3BFB60
:0E096100C002C0031207E7AC82AD83D003D002
:0E096F0002EC2AFAED3BFBC002C0031208B8EE
:0E097D00AC82AD83D003D002EC2AFAED3B8AA7
:04098B0082F583224C
:063E000042465F30310074
:063E060042465F3032006D
:063E0C0042465F30330066
:073E12004246435F3031001E
:073E190042464C5F3031000E
:073E200042464C5F30320006
:013F8500003B
:013F8600003A
:0E098F00AAF0AB83E582901139F0A3EBF0A340
:0E099D00EAF0901139E0FAA3E0FBA3E0FC744D
:0E09AB00012AFDE43BFE8C078D828E838FF0C7
:0E09B900123D92F582C002C003C0041206680F
:0E09C700D004D003D00274012AFDE43BFE8C64
:0A09D5000774022AF50AE43BF50B53
:0609DF008C0C850A8285E4
:0609E5000B83850CF012EB
:0E09EB003D92F582C002C003C004C005C006E4
:0E09F900C007120668D007D006D005D004D083
:0E0A070003D0028A828B838CF0123D92FA7427
:040A150003B5020023
:030A190050012267
:070A1C00EA2A2A900A237365
:070A2300020A2F020A4A0239
:050A2A000A65020A7AD2
:070A2F00850A82850B838517
:080A36000CF0123D92FA1A8542
:060A3E000A82850B83858E
:060A44000CF0EA02337A17
:070A4A00850A82850B8385FC
:080A51000CF0123D92FA0A8537
:060A59000A82850B838573
:060A5F000CF0EA02337AFC
:0E0A65008D828E838FF0123D92FA1A8D828E52
:070A7300838FF0EA02337AE1
:0E0A7A008D828E838FF0123D92FA0A8D828E4D
:070A8800838FF0EA02337ACC
:0E0A8F00AAF0AB83E58290113CF0A3EBF0A33C
:0E0A9D00EAF090113CE0FAA3E0FBA3E0FC7449
:0E0AAB00012AFDE43BFE8C078D828E838FF0C6
:0E0AB900123D92FD74022AFEE43BFF8C008E7B
:0E0AC700828F8388F0123D92901026F08D826F
:0E0AD500C002C003C004120426AD82D004D0BB
:080AE30003D002BD1102802BBB
:050AEB00BD1502803A78
:050AF000BD2102802180
:050AF500BD2202801C7F
:050AFA00BD230280177E
:050AFF00BD240280127D
:050B0400BD2502800D7B
:050B0900BD260280087A
:050B0E00BD2702800379
:030B1300BD2848B2
:0E0B160074032AFDE43BFE8C078D828E838FD4
:060B2400F0740102337AB7
:0E0B2A0074032AFDE43BFE8C078D828E838FC0
:0E0B3800F0740212337A74042AFDE43BFE8C42
:0E0B4600078D828E838FF0123D92F80808080A
:0A0B54008D828E838FF0E802337A61
:0E0B5E0074032AFAE43BFB8A828B838CF0E45A
:030B6C0002337AD7
:0E0B6F00AAF0AB83E58290113FF0A3EBF0A358
:0E0B7D00EAF090113FE0FAA3E0FBA3E0FC7465
:0E0B8B00032AFDE43BFE8C078D828E838FF0E3
:0E0B9900123D92F8B80159C005C006C007749D
:0E0BA700012AF8E43BF98C05888289838DF0E1
:0E0BB500123D92F874022AFDE43BFE8C078D7F
:0E0BC300828E838FF0123D92FD901023F090F1
:0E0BD10010247414F08882C002C003C004C057
:0E0BDF0005C006C0071203FFD007D006D005E0
:0C0BED00D004D003D002D007D006D00501
:0E0BF9008D828E838FF0123D92703274012A2D
:0D0C0700FDE43BFE8C078D828E838FF01282
:0E0C14003D92FD74022AFAE43BFB8A828B8338
:0A0C22008CF0123D92901023F09028
:0A0C2C0010247413F08D820203FF00
:010C3600229B
:0E0C3700AAF0AB83E582901142F0A3EBF0A38C
:0E0C4500EAF0901142E0FAA3E0FBA3E0FC7499
:0E0C5300032AFDE43BFE8C078D828E838FF01A
:0E0C6100123D92FDBD024274012AFDE43BFEED
:0E0C6F008C078D828E838FF0123D92FD7402F1
:0E0C7D002AFEE43BFF8C008E828F8388F012EB
:070C8B003D92901023F09050
:0E0C920010247412F08D82C002C003C0041240
:0A0CA00003FFD004D003D00280400F
:0E0CAA0074012AFDE43BFE8C078D828E838F41
:0E0CB800F0123D92FD74022AFEE43BFF8C0018
:0E0CC6008E828F8388F0123D92901023F09062
:0E0CD40010247411F08D82C002C003C00412FF
:080CE20003FFD004D003D0028F
:0E0CEA0074042AFAE43BFB8A828B838CF0129E
:0E0CF8003D927029C002C003C00412068AADEE
:0E0D060082C00512068AAE82D005901023EE40
:0E0D1400F0901024E4F08D821203FFD004D082
:030D220003D002F9
:0E0D25008A828B838CF0123D92FD600B1D8A3A
:090D3300828B838CF0ED02337A0F
:010D3C002294
:0E0D3D00AAF0AB83E582901146F0A3EBF0A381
:0C0D4B00EAF0901145E0FABA010280586D
:050D5700BA02028076E3
:050D5C00BA0302802A29
:050D6100BA040280014C
:010D6600226A
:0E0D6700901146E0FAA3E0FBA3E0FC8A828B29
:0B0D7500838CF0123D92FDBD020122B4
:0B0D80008A828B838CF0740302337AAC
:0E0D8B00901146E0FAA3E0FBA3E0FC8A828B05
:0B0D9900838CF0123D92FDBD0301228F
:0B0DA4008A828B838CF0740202337A89
:0E0DAF00901146E0FAA3E0FBA3E0FC8A828BE1
:0B0DBD00838CF0123D92FDBD0101226D
:0A0DC8008A828B838CF0E402337AF8
:0E0DD200901146E0FAA3E0FBA3E0FC8A828BBE
:0E0DE000838CF0123D92FD7E004E600B8A82E5
:090DEE008B838CF0740102337A4E
:010DF70022D9
:0E0DF800AAF0AB83E58290114AF0A3EBF0A3C2
:0E0E0600EAF090114AE0FAA3E0FBA3E0FC8AB8
:0E0E1400828B838CF0120C3790114AE0FAA307
:0E0E2200E0FBA3E0FC901149E0901145F08A3E
:0E0E3000828B838CF0120D3D90114AE0FAA3E4
:0E0E3E00E0FBA3E0FC8A828B838CF012098F0C
:0E0E4C0090114AE0FAA3E0FBA3E0FC8A828B3F
:0E0E5A00838CF0120A8F90114AE0FAA3E0FB9D
:0D0E6800A3E0FC8A828B838CF0120B6F904C
:0E0E7500114AE0FAA3E0FBA3E0FC74032AFAA2
:0E0E8300E43BFB8A828B838CF0123D92F58259
:010E9100223E
:0D0E9200E582901152F09011537403F0901E
:0C0E9F001154740AF0901155740AF09080
:090EAB001156E4F0901157F0908B
:080EB4001152E0901153F0907F
:080EBC00114DE0901145F0908A
:090EC400115375F000120D3D9070
:0E0ECD00114EE0FA7B00901153E0FC7D009086
:0E0EDB00114FE0FEA3E0FFA3E0F890102BEC17
:0E0EE900F0A3EDF090102DEEF0A3EFF0A3E8D3
:080EF700F08A828B830205CC16
:0D0EFF0090114D7404F090114E7403F090AA
:070F0C00114F7427F0A374DC
:0C0F13003EF0A37480F0758203120E9271
:0E0F1F00AA82AB8390114D7403F090114E74B2
:0A0F2D0003F090114F742CF0A37430
:0C0F37003EF0A37480F0758203C002C07D
:0E0F430003120E92AC82AD83D003D002EC2AD2
:0E0F5100FAED3BFB90114D7401F090114EE44F
:090F5F00F090114F7431F0A374FD
:0C0F68003EF0A37480F0758203C002C04C
:0E0F740003120E92AC82AD83D003D002EC2AA1
:0E0F8200FAED3BFB90114D7402F090114E748D
:0A0F900001F090114F7436F0A374C5
:0C0F9A003EF0A37480F0758203C002C01A
:0E0FA60003120E92AC82AD83D003D002EC2A6F
:0E0FB400FAED3BFB90114D7404F090114E7459
:0A0FC20002F090114F743BF0A3748D
:0C0FCC003EF0A37480F0758202C002C0E9
:0E0FD80003120E92AC82AD83D003D002EC2A3D
:0E0FE600FAED3BFB90114D7403F090114E7428
:0A0FF40002F090114F7440F0A37456
:0C0FFE003EF0A37480F0758202C002C0B7
:0E100A0003120E92AC82AD83D003D002EC2A0A
:0E101800FAED3BFB90114D7401F090114EE487
:09102600F090114F7445F0A37421
:0C102F003EF0A37480F0758202C002C085
:0E103B0003120E92AC82AD83D003D002EC2AD9
:0E104900FAED3BFB90114D7402F090114E74C5
:0A10570001F090114F744AF0A374E9
:0C1061003EF0A37480F0758202C002C053
:0E106D0003120E92AC82AD83D003D002EC2AA7
:0E107B00FAED3BFB90114D7404F090114E7491
:0A10890003F090114F744FF0A374B0
:0C1093003EF0A37480F0758200C002C023
:0E109F0003120E92AC82AD83D003D002EC2A75
:0E10AD00FAED3BFB90114D7403F090114E7460
:0A10BB0002F090114F7454F0A3747A
:0C10C5003EF0A37480F0758200C002C0F1
:0E10D10003120E92AC82AD83D003D002EC2A43
:0E10DF00FAED3BFB90114D7401F090114EE4C0
:0910ED00F090114F7459F0A37446
:0C10F6003EF0A37480F0758200C002C0C0
:0E11020003120E92AC82AD83D003D002EC2A11
:0E111000FAED3BFB90114D7402F090114EE48D
:09111E00F090114F745EF0A3740F
:0C1127003EF0A37480F0758200C002C08E
:0E11330003120E92AC82AD83D003D002EC2AE0
:0E114100FAED3BFB90114D7404F090114E74CA
:0A114F0003F090114F7463F0A374D5
:0C1159003EF0A37480F0758201C002C05B
:0E11650003120E92AC82AD83D003D002EC2AAE
:0E117300FAED3BFB90114D7403F090114E7499
:0A11810002F090114F7468F0A3749F
:0C118B003EF0A37480F0758201C002C029
:0E11970003120E92AC82AD83D003D002EC2A7C
:0E11A500FAED3BFB90114D7401F090114E7469
:0A11B30001F090114F746DF0A37469
:0C11BD003EF0A37480F0758201C002C0F7
:0E11C90003120E92AC82AD83D003D002EC2A4A
:0E11D700FAED3BFB90114D7402F090114E7436
:0A11E50001F090114F7472F0A37432
:0C11EF003EF0A37480F0758201C002C0C5
:0E11FB0003120E92AC82AD83D003D002EC2A18
:08120900FAED3B8A82F5832215
:0D1211009011587403F09011597413F0906F
:0B121E00115A740AF090115BE4F0908C
:0A122900115CF0901023740AF0909D
:0C12330010247415F07582131203FF9054
:09123F00115875F000120A8F909D
:0E124800115BE0FA7B0090102B7402F0A3E41F
:09125600F090102D7477F0A374E0
:0B125F003EF0A37480F08A828B8312A3
:0E126A0005CCAA82AB8390115CE0FC7D009065
:0C127800102B7403F0A3E4F090102D7410
:0A1284007DF0A3743EF0A37480F027
:0E128E008C828D83C002C0031205CCAC82ADF1
:0E129C0083D003D002EC2AFAED3BFB90102326
:0E12AA00740AF0901024E4F0758213C002C0A4
:0B12B800031203FF90115875F00012A4
:0A12C3000A8F90115BE0FC7D0090A3
:0A12CD00102BE4F0A3F090102D7434
:0A12D70083F0A3743EF0A37480F0CE
:0E12E1008C828D831205CCAC82AD83D003D0FD
:0B12EF0002EC2AFAED3B8A82F5832214
:0D12FA0090115E740AF090115F740AF0907C
:0B130700115DE4F090115D75F0001224
:0A131200098F90115FE0FA7B009054
:0B131C00102BEAF0A3EBF090102D74F2
:0A13270089F0A3743EF0A37480F077
:0E1331009000091205CCAA82AB8390115D7466
:0D133F0001F075F000C002C00312098F908C
:0E134C00115FE0FC7D0090102BECF0A3EDF0A3
:08135A0090102D748FF0A374B4
:0C1362003EF0A37480F090000A1205CC4D
:0E136E00AC82AD83D003D002EC2AFAED3BFB3B
:0E137C0090115D7402F075F000C002C0031203
:0A138A00098F90115EE0FC7D0090D9
:0B139400102BECF0A3EDF090102D7476
:0A139F0095F0A3743EF0A37480F0F3
:0E13A9009000091205CCAC82AD83D003D002B7
:0E13B700EC2AFAED3BFB90115D7403F075F02B
:0E13C50000C002C00312098F90115EE0FC7D93
:0D13D3000090102BECF0A3EDF090102D74A5
:0A13E0009BF0A3743EF0A37480F0AC
:0E13EA0090000A1205CCAC82AD83D003D00275
:0A13F800EC2AFAED3B8A82F583220D
:0C140200901165E4F09011637401F0900B
:0C140E0011647401F090116275F000127E
:0A141A000A8F901165E0FA7B009044
:0A142400102BE4F0A3F090102D74DB
:0A142E00A1F0A3743EF0A37480F057
:0E1438008A828B831205CCAA82AB8390116549
:0D144600E4F0901163F09011647401F090D7
:0D145300116275F000C002C003120A8F90F4
:0E1460001165E0FC7D0090102B7401F0A3E4F8
:09146E00F090102D74A6F0A37497
:0B1477003EF0A37480F08C828D831285
:0E14820005CCAC82AD83D003D002EC2AFAED8B
:0E1490003BFB901165E4F09011637401F09045
:0E149E001164E4F090116275F000C002C0030A
:0B14AC00120A8F901165E0FC7D00909B
:0C14B700102B7401F0A3E4F090102D74D1
:0A14C300ABF0A3743EF0A37480F0B8
:0E14CD008C828D831205CCAC82AD83D003D00F
:0D14DB0002EC2AFAED3BFB901165E4F09065
:0C14E8001163741DF0901164740EF090FC
:0D14F400116275F000C002C003120A8F9053
:0E1501001165E0FC7D0090102B7401F0A3E456
:09150F00F090102D74B0F0A374EB
:0B1518003EF0A37480F08C828D8312E3
:0E15230005CCAC82AD83D003D002EC2AFAEDE9
:0E1531003BFB901165E4F0901163741CF09088
:0E153F001164740FF090116275F000C002C0CC
:0C154D0003120A8F901165E0FC7D0090F5
:0C155900102B7401F0A3E4F090102D742E
:0A156500B5F0A3743EF0A37480F00B
:0E156F008C828D831205CCAC82AD83D003D06C
:0B157D0002EC2AFAED3B8A82F5832283
:0D1588009011677420F09011687431F0909C
:0C15950011697434F090116A7431F09008
:0C15A100116B7431F090116C7431F090FB
:0C15AD00116D742EF090116E742EF090F1
:0C15B900116F742EF0901170742EF090E1
:0B15C5001171E4F0901172742EF09090
:0C15D0001173742EF09011747431F090BF
:0C15DC001175742EF0901176742EF090B2
:0C15E80011777431F0901178742EF0909F
:0C15F4001179742EF090117A742EF09092
:0B160000117B742EF090117CE4F09040
:0C160B00117D742EF090117E742EF09072
:0C161700117F7431F09011807431F0905C
:0C16230011817431F09011827431F0904C
:0C162F001183742EF0901184742EF09042
:0C163B001185742EF0901186742EF09032
:0B1647001187E4F0901188742EF090E1
:0C1652001189742EF090118A742EF09013
:0C165E00118B742EF090118C742EF09003
:0C166A00118D742EF090118E742EF090F3
:0C167600118F742EF0901190742EF090E3
:0B1682001191742EF0901192E4F09092
:0C168D001193742EF0901194742EF090C4
:0C1699001195742EF0901196742EF090B4
:0C16A5001197742EF0901198742EF090A4
:0C16B1001199742EF090119A742EF09094
:0C16BD00119B742EF090119C742EF09084
:0B16C900119DE4F090119E7403F0905E
:0C16D400119F7413F09011A0740AF090A4
:0B16E00011A1E4F09011A2740BF012B5
:0616EB0006AA1225FF9083
:0516F10011A37405F0D7
:0C16F600901149E4F090119E75F0001274
:081702000DF89011A3E0149012
:0C170A0011A3F0FA70E69011A37402F035
:0D1716009011497402F090119E75F00012C0
:081723000DF89011A3E01490F1
:0C172B0011A3F0FA70E59011A37403F014
:0D1737009011497403F090119E75F000129E
:081744000DF89011A3E01490D0
:0C174C0011A3F0FA70E59011A37402F0F4
:0D1758009011497401F090119E75F000127F
:081765000DF89011A3E01490AF
:0A176D0011A3F0FA70E590127574F4
:0A177700BAF0A3743EF0A37480F0F2
:0917810090116775F0000226C703
:0D178A00E5829011A7F09011A87420F09056
:0C17970011A97420F09011AA7431F09098
:0C17A30011AB7431F09011AC7431F09077
:0C17AF0011AD7434F09011AE742EF09067
:0C17BB0011AF742EF09011B0742EF0905D
:0B17C70011B1742EF09011B2E4F0900C
:0C17D20011B3742EF09011B4742EF0903E
:0C17DE0011B5742EF09011B6742EF0902E
:0C17EA0011B7742EF09011B8742EF0901E
:0C17F60011B9742EF09011BA742EF0900E
:0C18020011BB742EF09011BC742EF090FD
:0B180E0011BDE4F09011BE742EF090AC
:0C18190011BF742EF09011C0742EF090DE
:0C18250011C1742EF09011C2742EF090CE
:0C18310011C3742EF09011C4742EF090BE
:0C183D0011C5742EF09011C6742EF090AE
:0B18490011C7742EF09011C8E4F0905D
:0C18540011C9742EF09011CA742EF0908F
:0C18600011CB742EF09011CC742EF0907F
:0C186C0011CD742EF09011CE742EF0906F
:0C18780011CF742EF09011D0742EF0905F
:0C18840011D1742EF09011D2742EF0904F
:0B18900011D3E4F09011D4742EF090FE
:0C189B0011D5742EF09011D6742EF09030
:0C18A70011D7742EF09011D8742EF09020
:0C18B30011D9742EF09011DA742EF09010
:0C18BF0011DB742EF09011DC742EF09000
:0B18CB0011DD742EF09011DEE4F090AF
:0C18D60011DF7403F09011E07413F09027
:0B18E20011E1740AF09011E2E4F090B4
:0918ED0011E37403F01206AA12C3
:0818F60025FF9011A7E0FA9014
:0E18FE001023740AF0901024EAF0758218127C
:08190C0003FF9011E47405F0E3
:0C191400901149E4F09011DF75F0001212
:081920000DF89011E4E01490B1
:0E19280011E4F0FA70E69011A4E0FAA3E0FBDF
:0E193600A3E0FC901275EAF0A3EBF0A3ECF036
:091944009011A875F0000226C7FD
:08194D009011A474BEF0A37414
:0C1955003EF0A37480F075822112178A06
:0C196100AA82AB839011A474C4F0A3749C
:0C196D003EF0A37480F0758222C002C01E
:0E1979000312178AAC82AD83D003D002EC2A91
:0C198700FAED3BFB9011A474CAF0A374AD
:0C1993003EF0A37480F0758223C002C0F7
:0E199F000312178AAC82AD83D003D002EC2A6B
:0C19AD00FAED3BFB9011A474D0F0A37481
:0C19B9003EF0A37480F0758224C002C0D0
:0E19C5000312178AAC82AD83D003D002EC2A45
:0C19D300FAED3BFB9011A474D6F0A37455
:0C19DF003EF0A37480F0758225C002C0A9
:0E19EB000312178AAC82AD83D003D002EC2A1F
:0C19F900FAED3BFB9011A474DCF0A37429
:0C1A05003EF0A37480F0758226C002C081
:0E1A11000312178AAC82AD83D003D002EC2AF8
:0C1A1F00FAED3BFB9011A474E2F0A374FC
:0C1A2B003EF0A37480F0758227C002C05A
:0E1A37000312178AAC82AD83D003D002EC2AD2
:0C1A4500FAED3BFB9011A474E8F0A374D0
:0C1A51003EF0A37480F0758228C002C033
:0E1A5D000312178AAC82AD83D003D002EC2AAC
:081A6B00FAED3B8A82F58322AB
:0D1A73009011E57420F09011E67420F090C1
:0C1A800011E77420F09011E87420F09041
:0C1A8C0011E97420F09011EA7420F09031
:0C1A980011EB7431F09011EC742EF09002
:0C1AA40011ED742EF09011EE742EF090F5
:0B1AB00011EFE4F09011F0742EF090A4
:0C1ABB0011F1742EF09011F2742EF090D6
:0C1AC70011F3742EF09011F4742EF090C6
:0C1AD30011F5742EF09011F67432F090B2
:0C1ADF0011F7742EF09011F8742EF090A6
:0B1AEB0011F9742EF09011FAE4F09055
:0C1AF60011FB742EF09011FC742EF09087
:0C1B020011FD742EF09011FE742EF09076
:0C1B0E0011FF742EF0901200742EF09065
:0C1B1A0012017431F0901202742EF09051
:0C1B26001203742EF0901204742EF09044
:0B1B32001205E4F0901206742EF090F3
:0C1B3D001207742EF0901208742EF09025
:0C1B490012097433F090120A7431F0900D
:0C1B5500120B7431F090120C7431F090FF
:0C1B6100120D742EF090120E742EF090F5
:0B1B6D00120F742EF0901210E4F090A4
:0C1B78001211742EF0901212742EF090D6
:0C1B84001213742EF0901214742EF090C6
:0C1B90001215742EF0901216742EF090B6
:0C1B9C001217742EF0901218742EF090A6
:0C1BA8001219742EF090121A742EF09096
:0B1BB400121BE4F090121C7403F09070
:0C1BBF00121D7413F090121E740AF090B6
:0B1BCB00121FE4F09012207403F012CF
:061BD60006AA1225FF9093
:0E1BDC001023740BF09010247415F07582190C
:091BEA001203FF9012217406F0B1
:0C1BF300901149E4F090121C75F00012F3
:081BFF000DF8901221E0149092
:0C1C07001221F0FA70E69012217403F034
:0D1C13009011497402F090121C75F000123F
:081C20000DF8901221E0149070
:0C1C28001221F0FA70E59012217403F014
:0D1C34009011497403F090121C75F000121D
:081C41000DF8901221E014904F
:0A1C49001221F0FA70E59012757494
:0A1C5300EEF0A3743EF0A37480F0DD
:091C5D009011E575F0000226C7A4
:0D1C66009012227420F09012237420F09050
:0C1C730012247420F09012257420F090D0
:0C1C7F0012267431F09012277431F0909E
:0C1C8B0012287431F09012297433F0908C
:0C1C9700122A742EF090122B742EF09084
:0B1CA300122CE4F090122D742EF09033
:0C1CAE00122E742EF090122F742EF09065
:0C1CBA001230742EF0901231742EF09055
:0C1CC6001232742EF0901233742EF09045
:0C1CD2001234742EF0901235742EF09035
:0B1CDE001236742EF0901237E4F090E4
:0C1CE9001238742EF0901239742EF09016
:0C1CF500123A742EF090123B742EF09006
:0C1D0100123C742EF090123D742EF090F5
:0C1D0D00123E742EF090123F742EF090E5
:0C1D19001240742EF0901241742EF090D5
:0B1D25001242E4F0901243742EF09084
:0C1D30001244742EF0901245742EF090B6
:0C1D3C001246742EF0901247742EF090A6
:0C1D48001248742EF0901249742EF09096
:0C1D5400124A742EF090124B742EF09086
:0B1D6000124C742EF090124DE4F09035
:0C1D6B00124E742EF090124F742EF09067
:0C1D77001250742EF0901251742EF09057
:0C1D83001252742EF0901253742EF09047
:0C1D8F001254742EF0901255742EF09037
:0C1D9B001256742EF0901257742EF09027
:0B1DA7001258E4F09012597403F09001
:0C1DB200125A7413F090125B740AF09047
:0B1DBE00125CE4F090125D7403F01260
:061DC90006AA1225FF909E
:051DCF00125E7407F034
:0C1DD400901149E4F090125975F00012D3
:081DE0000DF890125EE0149072
:0A1DE800125EF0FA70E690127574B6
:0A1DF200F3F0A3743EF0A37480F038
:091DFC0090122275F0000226C7C6
:0E1E0500120EFFAA82AB83C002C0031212FAB3
:0E1E1300AC82AD83D003D002EC2AFAED3BFB8B
:0E1E2100C002C003121211AC82AD83D003D0F8
:0E1E2F0002EC2AFAED3BFBC002C003121C6657
:0E1E3D00AC82AD83D003D002EC2AFAED3BFB61
:0E1E4B00C002C003121A73AC82AD83D003D064
:0E1E590002EC2AFAED3BFBC002C00312194D49
:0E1E6700AC82AD83D003D002EC2AFAED3BFB37
:0E1E7500C002C003121588AC82AD83D003D02A
:0B1E830002EC2AFAED3B8A82F5832274
:053E270053543031008E
:053E2C00535430320088
:053E3100535430330082
:053E360053543034007C
:053E3B00535431310079
:053E4000535431320073
:053E450053543133006D
:053E4A00535431340067
:053E4F00535432310064
:053E540053543232005E
:053E5900535432330058
:053E5E00535432340052
:053E630053543331004F
:053E6800535433320049
:053E6D00535433330043
:053E720053543334003D
:063E77005346303031001B
:063E7D0053463030320014
:063E83005346303033000D
:063E8900534D3030310002
:063E8F00534D30303200FB
:063E9500534D30303300F4
:063E9B00534D30303400ED
:053EA100534F30310019
:053EA600534F30320013
:053EAB00534F3033000D
:053EB000534F30340007
:053EB500534F30350001
:043EBA00534E54000F
:063EBE00534E4F2D4100A0
:063EC400534E4F2D420099
:063ECA00534E4F2D430092
:063ED000534E4F2D44008B
:063ED600534E4F2D450084
:063EDC00534E4F2D46007D
:063EE200534E4F2D470076
:063EE800534E4F2D48006F
:053EEE00534E54460094
:043EF300534E4700E3
:0E1E8E00AAF0AB83E58290125FF0A3EBF0A305
:0E1E9C00EAF090125FE0FAA3E0FBA3E0FC8AFC
:0E1EAA00828B838CF0123D92FDBDFD0475828B
:021EB800012205
:0E1EBA0074012AFDE43BFE8C078D828E838F1F
:0C1EC800F0123D92FDBDFE047582032265
:071ED400BDFB04758204222E
:0E1EDB0074022AFAE43BFB8A828B838CF0129D
:0A1EE9003D92FABAFD047582022250
:041EF30075820022D2
:0D1EF70090126274FFF090126374FFF0907F
:0C1F0400126474FFF090126574FFF090FE
:0D1F1000126275F000121E8EAA827B0090F6
:0A1F1D00102BE4F0A3F090102D74D7
:0A1F2700F7F0A3743EF0A37480F0FD
:0E1F31008A828B831205CCAA82AB8390126247
:0E1F3F0074FDF075F000C002C003121E8EACDF
:0D1F4D00827D0090102B7401F0A3E4F09051
:071F5A00102D74FDF0A374CB
:0B1F61003EF0A37480F08C828D831290
:0E1F6C0005CCAC82AD83D003D002EC2AFAED96
:0E1F7A003BFB90126274FFF090126374FEF055
:0E1F880090126275F000C002C003121E8EACF3
:0D1F9600827D0090102B7403F0A3E4F09006
:071FA300102D7403F0A3747C
:0B1FAA003FF0A37480F08C828D831246
:0E1FB50005CCAC82AD83D003D002EC2AFAED4D
:0E1FC3003BFB90126374FBF090126275F0000D
:0E1FD100C002C003121E8EAC827D0090102B49
:0C1FDF007404F0A3E4F090102D7409F0DD
:0C1FEB00A3743FF0A37480F08C828D83FF
:0E1FF7001205CCAC82AD83D003D002EC2AFAE6
:0E200500ED3BFB90126374FFF090126474FDCB
:0E201300F090126275F000C002C003121E8E23
:0E202100AC827D0090102B7402F0A3E4F090CE
:07202F00102D740FF0A374E3
:0B2036003FF0A37480F08C828D8312B9
:0E20410005CCAC82AD83D003D002EC2AFAEDC0
:06204F003B8A82F58322AA
:03205500021EF771
:063EF7004B4230303100A7
:063EFD004B4230303200A0
:063F03004B423030330098
:063F09004B423030340091
:063F0F004B42303035008A
:0E205800AAF0AB83E582901266F0A3EBF0A332
:0E206600EAF0901266E0FAA3E0FBA3E0FC8A29
:0E207400828B838CF0123D92FD74012AFEE4F3
:0E2082003BFF8C008E828F8388F0123D92907F
:0E2090001026F08D82C002C003C004C006C03E
:0E209E0007C000120426E582D000D007D0064D
:0B20AC00D004D003D002700302226BAE
:0E20B7008A828B838CF0123D92FD0D8E828FFB
:0E20C5008388F0123D92901026F08D82C002AA
:0E20D300C003C004C006C007C000120426E50A
:0E20E10082D000D007D006D004D003D0027009
:0E20EF00188A828B838CF0123D92FD0D8A823E
:0B20FD008B838CF0ED12337A02224935
:0E2108008A828B838CF0123D92FD1D8E828F99
:0E2116008388F0123D92901026F08D82C00258
:0E212400C003C004C006C007C000120426E5B8
:0E21320082D000D007D006D004D003D00270B7
:0E214000188A828B838CF0123D92FD1D8A82DC
:0B214E008B838CF0ED12337A022249E3
:0E2159008A828B838CF0123D92FD8E828F83E2
:0E21670088F0123D9290102604F08D82C00286
:0E217500C003C004C006C007C000120426E567
:0E21830082D000D007D006D004D003D0027066
:0E219100188E828F8388F0123D92FD0D8E8293
:0B219F008F8388F0ED12337A02224992
:0E21AA008A828B838CF0123D92FD8E828F8391
:0E21B80088F0123D92F919901026E9F08D8200
:0D21C600C002C003C004C006C007C0001264
:0E21D3000426E582D000D007D006D004D00349
:0E21E100D00270178E828F8388F0123D92FD1F
:0D21EF001D8E828F8388F0ED12337A804DB3
:0E21FC00C006C007C0008A828B838CF0C00230
:0E220A00C003C004C006C007C00012228DD061
:0E22180000D007D006901266E0FDA3E0F9A307
:0E222600E0FE8D8289838EF0C006C007C000E6
:0E223400122058D000D007D006D004D003D01E
:0722420002D000D007D00616
:0E2249008A828B838CF0123D92FD8E828F83F1
:0A22570088F0123D92901023F090E1
:0A22610010247415F08D820203FFB3
:0E226B008A828B838CF0123D92FA8E828F83D2
:0A22790088F0123D92901023F090BF
:0A22830010247415F08A820203FF94
:0E228D00AAF0AB83E582901269F0A3EBF0A3F8
:0E229B00EAF0901269E0FAA3E0FBA3E0FC90E9
:0E22A900133A741DF0A3E4F0900000C002C0D0
:0E22B70003C0041231CFAD82D004D003D00298
:0E22C5008A828B838CF0ED12337A0ABA000104
:0122D3000BFF
:0E22D40090133A740FF0A3E4F0900000C002E3
:0E22E200C003C0041231CFAD82D004D003D0AF
:0B22F000028A828B838CF0ED02337AAF
:0A22FB0090126C75F00012228D9015
:08230500126C75F00002205873
:0D230D0090126E740AF090126F740AF09036
:09231A00126EE0FA90126FE090DF
:0B2323001023F0901024E4F08A8212D6
:09232E0003FF90126E75F000121D
:0A233700205890126EE0FA7B00902F
:0C234100102B740AF0A3E4F090102D742F
:0A234D0015F0A3743FF0A37480F0B4
:0E2357008A828B831205CCAA82AB8390126F10
:0E236500E0FC7D0090102B740AF0A3E4F090D1
:07237300102D741AF0A37491
:0C237A003FF0A37480F08C828D83C002C1
:0E238600C0031205CCAC82AD83D003D002ECB4
:0E2394002AFAED3BFB901026740AF075820ABF
:0E23A200C002C003120426E582FC3395E0FD64
:0D23B00090102B7415F0A3E4F090102D7424
:0A23BD001FF0A3743FF0A37480F03A
:0E23C7008C828D831205CCAC82AD83D003D006
:0E23D50002EC2AFAED3BFB90126E75F000C090
:0E23E30002C00312205890126EE0FC7D0090A4
:0C23F1001032740AF0A3E4F09010347471
:0A23FD0024F0A3743FF0A37480F0F5
:0E2407008C828D8312061DAC82AD83D003D073
:0D24150002EC2AFAED3BFB90126EE0FC9009
:0E242200126FE0901026F08C82C002C00312F0
:0E2430000426E582FC3395E0FD90102B741518
:0C243E00F0A3E4F090102D7429F0A374BA
:0B244A003FF0A37480F08C828D8312A1
:0E24550005CCAC82AD83D003D002EC2AFAEDA8
:062463003B8A82F5832292
:0D2469009012707432F09012717432F09085
:0C24760012727432F09012737432F09005
:09248200127075F00012228D9019
:09248B00127275F00012228D900E
:0E2494001270E0FA7B009010327432F0A3E474
:0924A200F0901034742EF0A374C4
:0B24AB003FF0A37480F08A828B831244
:0E24B600061DAA82AB83901271E0FC7D00909F
:0C24C40010327432F0A3E4F09010347475
:0A24D00033F0A3743FF0A37480F012
:0E24DA008C828D83C002C00312061DAC82AD41
:0E24E80083D003D002EC2AFAED3BFB90127277
:0E24F600E0FC7D009010327432F0A3E4F09010
:0725040010347438F0A374D9
:0C250B003FF0A37480F08C828D83C0022E
:0E251700C00312061DAC82AD83D003D002ECCF
:0D2525002AFAED3BFB901273E0FC7D009064
:0C25320010327432F0A3E4F09010347406
:0A253E003DF0A3743FF0A37480F099
:0E2548008C828D83C002C00312061DAC82ADD2
:0E25560083D003D002EC2AFAED3BFB9012700A
:0E256400E0FC7D00901272E0FE7F00901032CD
:0C257200EEF0A3EFF09010347442F0A3E0
:0C257E00743FF0A37480F08C828D83C049
:0E258A0002C00312061DAC82AD83D003D00246
:0E259800EC2AFAED3BFB901271E0FC7D009006
:0E25A6001273E0FE7F00901032EEF0A3EFF013
:0825B4009010347447F0A37489
:0C25BC003FF0A37480F08C828D83C0027D
:0E25C800C00312061DAC82AD83D003D002EC1E
:0925D6002AFAED3B8A82F583220A
:0E25DF00122469AA82AB83C002C00312230D2E
:0E25ED00AC82AD83D003D002EC2AFAED3B8A1B
:0425FB0082F58322C0
:053F150046504631009A
:053F1A00465046320094
:053F1F0046504633008E
:053F2400465046340088
:053F2900465046360081
:053F2E00465052310075
:053F330046505232006F
:053F3800465052330069
:053F3D00465052340063
:053F420046505235005D
:053F4700465052360057
:0E25FF009010217409F07582121203DDAA8279
:0E260D00AB8390101A7403F090101B740CF045
:0E261B00A3E4F08A828B8312034A901274E4C7
:01262900F0C0
:08262A00901274E0FABA0500F9
:0E263200506D901021740A2AF0758212C002B9
:0E2640001203DDAB82AC8390100C7403F08BA0
:0E264E00828C83C003C00412021FD004D0038C
:07265C00D0020BBB00010CD2
:0E26630090101A740EF090101B740AF0A3E48D
:0E267100F08B828C83C002C003C00412034AA7
:0E267F00D004D003740A2BFBE43CFC90100C3A
:0D268D007403F08B828C8312021FD0029028
:07269A001274EA04F08089CC
:0E26A100901021740FF07582121203DDAA82D0
:0E26AF00AB8390101A7403F090101B740CF0A3
:0A26BD00A3E4F08A828B8302034A33
:0E26C700AAF0AB83E582901278F0A3EBF0A3AB
:0E26D500EAF090127DE4F0A3F090127CE4F0A5
:0B26E300901278E0FAA3E0FBA3E0FCFB
:0826EE0090127CE0FDBD050027
:0526F60040030227D59E
:0E26FB0090127BE4F0EDFE75F00BA42AFFE4D4
:082709003BF88C01740A2DFD60
:0C27110090127BE0F50DC3940A40030217
:02271D0027CBC8
:0C271F00C002C003C004E50D2FFAE4382E
:0E272B00FB89048A828B838CF0123D9224E09D
:0C273900FA7413250DFB901026EDF08BB8
:0E27450082C002C004C005C006C007C000C0AC
:0E27530001120426AB82D001D000D007D006C0
:0E276100D005D004D002EBB50208D004D0039E
:04276F00D002804EC6
:0C277300D004D003C003C0047413250D73
:0E277F00FA901023740A2EF09010247438F093
:0E278D008A82C002C003C004C005C006C00797
:0E279B00C000C0011203FFD001D000D007D053
:0E27A90006D005D004D003D00290127D74013A
:0A27B700F0A3E4F0D004D003D00238
:0A27C10090127BE02401F0022711C2
:0A27CB0090127CE02401F00226EEDB
:0E27D50090127DE0FAA3E0FB4A602BC002C028
:0E27E30003901275E0C0E0A3E0C0E0A3E0C0E8
:0A27F100E0744CC0E0743FC0E074D7
:0E27FB0080C0E012357CE58124FAF581D00320
:02280900D002FB
:05280B008A828B83228C
:0E3F4C00457272657572206264642025730DE3
:023F5A000A005B
:0E281000E582901280F075F008A4FAABF07C1F
:0E281E000090127FE075F008A4FD741825F0FC
:0D282C00FE901011EAF0A3EBF0A3ECF09089
:0D28390010147408F0A3E4F08D828E830269
:02284600028D01
:0D28480090127F7421F0758200122810900C
:0C285500127F7422F0758201122810908E
:0C286100127F7423F07582021228109080
:0C286D00127F7424F07582031228109072
:0C287900127F7425F07582041228109064
:0C288500127F7426F07582051228109056
:0C289100127F7427F07582061228109048
:0C289D00127F7428F0758207122810903A
:0C28A900127F7411F07582081228109044
:0C28B500127F7412F07582091228109036
:0C28C100127F7413F075820A1228109028
:0C28CD00127F7414F075820B122810901A
:0B28D900127F7415F075820C022810AD
:0D28E400E582901284F0FA901281E0FB90E2
:0E28F1001023F09010247421F08A82C002C0DF
:0C28FF00031203FFD003901282E0FC9053
:0E290B001023EBF09010247423F08C82C00394
:0E291900C0041203FFD004D003D00290128538
:03292700EA04F0CF
:08292A00901285E0FDB50400E8
:0E2932005028901023EBF09010247422F08DAA
:0E29400082C002C003C004C0051203FFD00510
:0E294E00D004D003D002901285ED04F080CEAC
:0A295C00901283E0FD901023F0902C
:0E29660010247426F08A82C002C003C004C090
:0E297400051203FFD005D004901023EDF09063
:0E29820010247428F08C82C004C0051203FFDC
:0E299000D005D004D003D002901285EA04F0E6
:08299E00901285E0FEB5040073
:0E29A600502C901023EDF09010247427F08E2A
:0E29B40082C002C003C004C005C0061203FFAB
:0E29C200D006D005D004D003D002901285EECE
:0429D00004F080CAC5
:0629D400901286EB04F0F6
:0829DA00901286E0FBB5050038
:0E29E2005048901023EBF09010247425F08CD8
:0E29F00082C002C003C004C0051203FFD00560
:0E29FE00D004D003D002901023EBF0901024F0
:0E2A0C007424F08A82C002C003C004C0051208
:0E2A1A0003FFD005D004D003D002901286EB4B
:042A280004F080AE88
:012A2C002287
:0C2A2D00E58290128AF0FA90128BF09073
:092A39001287E0FB901288E0FC1A
:092A420090128BE0FDECB50500DB
:0E2A4B004027901023EBF0901024E4F08D82D1
:0E2A5900C002C003C004C0051203FFD005D0A8
:0D2A670004D003D00290128BED04F080CE5D
:0A2A740090128BEAF0901289E0FD49
:092A7E0090128BE0FEECB506009D
:0E2A8700402B901023EDF0901024E4F08E828E
:0E2A9500C002C003C004C005C0061203FFD07B
:0E2AA30006D005D004D003D00290128BEE04B2
:032AB100F080CAE8
:092AB40090128CEB04F0EA04FB23
:082ABD0090128CE0FEB505004B
:032AC500400122AB
:0E2AC800901023EEF0901024E4F08C82C002F7
:0E2AD600C003C004C005C0061203FFD006D026
:0D2AE40005D004D003D002901023EEF09036
:0E2AF1001024E4F08A82C002C003C004C005B5
:0E2AFF00C0061203FFD006D005D004D003D0CD
:062B0D000290128BEBF0B8
:082B130090128BE0FFB50400F5
:0E2B1B00502F901023EEF0901024E4F08F82E3
:0D2B2900C002C003C004C005C006C00712F2
:0E2B360003FFD007D006D005D004D003D00294
:082B440090128BEF04F080C732
:0A2B4C0090128CE02401F0022ABD73
:0E2B5600E582901291F0901293E4F0A3F090BB
:0E2B6400128EE0FAA3E0FBA3E0FC8A828B83D2
:0E2B72008CF0123D7AAA82901291E0FB2A04A8
:0E2B8000FA90128DE0FC2402FD901023ECF080
:0E2B8E009010247421F08B82C002C003C0049A
:0E2B9C00C0051203FFD005D004D003D0029074
:0E2BAA001023ECF09010247423F08A82C002F5
:0E2BB800C003C004C0051203FFD005D004D036
:092BC60003D002901292EB04F01E
:082BCF00901292E0FEB5020035
:0E2BD700502C901023ECF09010247422F08EFD
:0E2BE50082C002C003C004C005C0061203FF78
:0E2BF300D006D005D004D003D002901292EE8E
:042C010004F080CA91
:0E2C0500901023EDF09010247426F08B82C006
:0E2C130002C003C004C0051203FFD005D004A8
:0E2C2100D003D002901023EDF0901024742800
:0E2C2F00F08A82C002C003C004C0051203FF79
:0E2C3D00D005D004D003D002901292EB04F028
:082C4B00901292E0FEB50200B8
:0E2C5300502C901023EDF09010247427F08E7A
:0E2C610082C002C003C004C005C0061203FFFB
:0E2C6F00D006D005D004D003D002901292EE11
:042C7D0004F080CA15
:0E2C8100EC04FD901023F09010247425F08ACE
:0E2C8F0082C002C003C004C0051203FFD005BE
:0E2C9D00D004D003901023EDF0901024742486
:0E2CAB00F08B82C003C0041203FFD004D003DC
:0C2CB900D002901292EB04F0EC04F50E37
:092CC50090128EE0F50FA3E0F57A
:052CCE0010A3E0F51168
:082CD300901292E0FFB502002F
:0E2CDB005055C002901293E0F8A3E0F9E825EE
:072CE9000FFAE93510FBAC06
:0C2CF000118A828B838CF0123D9224E04C
:082CFC00FA901023E50EF090A0
:0E2D04001024EAF08F82C002C007C000C00198
:0E2D12001203FFD001D000D007D00290129320
:0E2D2000740128F0E439A3F0901292EF04F051
:042D2E00D00280A1AE
:012D3200227E
:0D2D33009012957441F09012967442F09049
:0C2D400012977442F09012987442F090C8
:0C2D4C0012997442F090129A7442F090B8
:0C2D5800129B7442F090129C7442F090A8
:0C2D6400129D7442F090129E7443F09097
:0B2D7000129FE4F09012A07444F09059
:0C2D7B0012A1742EF09012A2742EF090A1
:0C2D870012A3742EF09012A4742EF09091
:0C2D930012A5742EF09012A6742EF09081
:0C2D9F0012A7742EF09012A8742EF09071
:0B2DAB0012A97445F09012AAE4F09009
:0C2DB60012AB7444F09012AC742EF0903C
:0C2DC20012AD742EF09012AE742EF09042
:0C2DCE0012AF742EF09012B0742EF09032
:0C2DDA0012B1742EF09012B2742EF09022
:0C2DE60012B3742EF09012B47445F090FB
:0B2DF20012B5E4F09012B67444F090AB
:0C2DFD0012B7742EF09012B8742EF090F3
:0C2E090012B9742EF09012BA742EF090E2
:0C2E150012BB742EF09012BC742EF090D2
:0C2E210012BD742EF09012BE742EF090C2
:0B2E2D0012BF7445F09012C0E4F0905A
:0C2E380012C17446F09012C27447F09072
:0C2E440012C37447F09012C47447F09061
:0C2E500012C57447F09012C67447F09051
:0C2E5C0012C77447F09012C87447F09041
:0C2E680012C97447F09012CA7448F09030
:082E740012CBE4F01225FF90DF
:0C2E7C001281740AF0901282741CF09015
:0C2E88001283740EF07582131228E4907F
:072E94001275745CF0A374D9
:0C2E9B003FF0A37480F090129575F000D9
:032EA7000226C739
:0D2EAA009012CC742EF09012CD742EF0908A
:0C2EB70012CE742EF09012CF742EF0900A
:0C2EC30012D0742EF09012D1742EF090FA
:0C2ECF0012D2742EF09012D3742EF090EA
:0C2EDB0012D4742EF09012D5742EF090DA
:0B2EE70012D6E4F09012D7742EF09089
:0C2EF20012D87420F09012D97420F090D7
:0C2EFE0012DA7420F09012DB7420F090C7
:0C2F0A0012DC7420F09012DD7420F090B6
:0C2F160012DE7420F09012DF7420F090A6
:0B2F220012E0742EF09012E1E4F09039
:0C2F2D0012E2742EF09012E37420F09079
:0C2F390012E47420F09012E57420F09077
:0C2F450012E67420F09012E77420F09067
:0C2F510012E87420F09012E97420F09057
:0C2F5D0012EA7420F09012EB742EF09039
:0B2F690012ECE4F09012ED742EF090DA
:0C2F740012EE7420F09012EF7420F09028
:0C2F800012F07420F09012F17420F09018
:0C2F8C0012F27420F09012F37420F09008
:0C2F980012F47420F09012F57420F090F8
:0B2FA40012F6742EF09012F7E4F0908B
:0C2FAF0012F8742EF09012F9742EF090BD
:0C2FBB0012FA742EF09012FB742EF090AD
:0C2FC70012FC742EF09012FD742EF0909D
:0C2FD30012FE742EF09012FF742EF0908D
:0C2FDF001300742EF0901301742EF0907B
:082FEB001302E4F01225FF902F
:0C2FF3001287740BF0901288741BF09091
:0C2FFF001289740DF0758214122A2D90B6
:07300B0012757461F0A3745B
:0C3012003FF0A37480F09012CC75F00029
:03301E000226C7C0
:0D302100901303742EF0901304742EF090A1
:0C302E001305742EF0901306742EF09021
:0C303A001307742EF0901308742EF09011
:0C3046001309742EF090130A742EF09001
:0C305200130B742EF090130C742EF090F1
:0B305E00130DE4F090130E742EF090A0
:0C306900130F7441F09013107442F090AB
:0C30750013117442F09013127442F0909A
:0C30810013137442F09013147442F0908A
:0C308D0013157443F0901316742EF0908D
:0B3099001317742EF0901318E4F09051
:0C30A4001319742EF090131A7444F0906D
:0C30B000131B7420F090131C7454F0905B
:0C30BC00131D7458F090131E7454F09013
:0C30C800131F7420F09013207445F0904A
:0C30D4001321742EF0901322742EF09043
:0B30E0001323E4F0901324742EF090F2
:0C30EB0013257446F09013267447F090F3
:0C30F70013277447F09013287447F090E2
:0C31030013297447F090132A7447F090D1
:0C310F00132B7448F090132C742EF090D9
:0B311B00132D742EF090132EE4F090A2
:0C312600132F742EF0901330742EF090D4
:0C3132001331742EF0901332742EF090C4
:0C313E001333742EF0901334742EF090B4
:0C314A001335742EF0901336742EF090A4
:0C3156001337742EF0901338742EF09094
:083162001339E4F01225FF907F
:09316A00128D740BF090128E74AA
:0A31730066F0A3743FF0A37480F02F
:0A317D00758214122B56901275741F
:0A3187006CF0A3743FF0A37480F015
:0931910090130375F0000226C73B
:0E319A00122D33AA82AB83C002C003122EAAEC
:0E31A800AC82AD83D003D002EC2AFAED3BFBE3
:0E31B600C002C003123021AC82AD83D003D022
:0B31C40002EC2AFAED3B8A82F5832220
:053F5C00474D42440046
:053F6100474D42430042
:063F660020545854200015
:053F6C00474D42540026
:0D31CF00AA83E58290133CF0A3CAF0FB90A8
:0731DC00133AE0FCA3E0FD43
:0E31E300C002C003C004C005123306AE82D085
:0E31F10005D004D003D0028E077800C3EF9AF9
:0E31FF00E864808BF063F08095F040D8EC9F80
:0E320D00ED648088F063F08095F040CA8E82F8
:01321B002290
:0D321C0090133A7464F0A3E4F090000112E6
:0E32290031CFAA8290133A7464F0A3E4F090BF
:0E3237000001C0021231CFAB82D002EA339503
:0E324500E0FCEB3395E0FD901032EBF0A3EDD2
:09325300F09010347471F0A374C2
:0B325C003FF0A37480F08A828C830294
:02326700061D42
:0332690002321C12
:053F7100525452310022
:0E326C00AA83E582901340F0A3EAF09013428B
:0E327A00E4F0A3F090133EE0FAA3E0FB7C101A
:0C328800901340E0FDA3E0FE339200EE46
:0E329400CD25E0CD33FE901340EDF0A3EEF01B
:0E32A200901342E0FDA3E0CD25E0CD33FE9079
:0B32B0001342EDF0A3EEF0300012908E
:0E32BB001342E0FDA3E0FE90134274014DF0BB
:0332C900A3EEF081
:0E32CC00901342E0FDA3E0FEC3ED9AEE9B409E
:0D32DA001D901342EDC39AF0EE9BA3F090FF
:0E32E7001340E0FDA3E0FE90134074014DF093
:0332F500A3EEF055
:0E32F800DC8E901340E0FAA3E08A82F5832278
:0E330600901386E0FAA3E0FBA3E0FCA3E0FD39
:0E331400901349EAF0A3EBF0A3ECF0A3EDF068
:0E332200904E6D75F0C674411233B3AA82ABA3
:0E33300083ACF0FD90138674392AF074303BA4
:0E333E00A3F0E43CA3F0E43DA3F0901386E07E
:0E334C00A3E0A3E0FCA3E0FD8C028D0353037D
:06335A007F8A828B8322B2
:0D336000AA83E582901344F0A3CAF0FB900D
:0D336D001386EAF0A3EBF0A3E4F0A3F02236
:043F87000100000035
:06003700E478FFF6D8FD9D
:08001500790AE94400601B7A3E
:05001D0001903F817815
:030022008075A046
:0A00250013E493F2A308B8000205EB
:08002F00A0D9F4DAF275A0FF7C
:0E337A0020F71030F6118883A88220F507F6A0
:05338800A8837583001D
:01338D00221D
:03338E00F280F7D3
:02339100F02228
:0E339300AA83AB828BF0901347E0A4F8A9F058
:0E33A1008AF0E0A429F98BF0A3E0A429F583BB
:0433AF0088822222CC
:0E33B300A882A983AAF0FB88F0901349E0A439
:0E33C100FCADF089F0E0A42DFDE435F0FE88AF
:0E33CF00F0A3E0A42DFDE5F03EFEE433FF89FF
:0E33DD00F0E0A42EFEE5F03FFF88F0A3E0A490
:0E33EB002EFEE5F03FFF8AF0901349E0A42E7D
:0E33F900FEE5F03FFF8BF0E0A42FFF8AF0A36B
:0E340700E0A42FFF89F0A3E0A42FFF88F0A31C
:0A341500E0A42F8EF08D838C82223C
:0E341F00AA83E58290134FF0A3CAF0FB33E4BA
:0D342D0033FC6009C3E49AFDE49BFE8004BB
:04343A008A058B066E
:0E343E008D028E0390134DE0FDA3E0FE30E7FB
:0A344C0009C3E49DFFE49EF880042C
:043456008D078E0050
:0E345A00901351EFF0A3E8F08A828B83C00438
:0E346800123485AA82AB83D004EC600CC3E45E
:0A3476009AFCE49BFD8C828D8322FA
:053480008A828B83220B
:0E348500AA83E582901353F0A3EAF09013554A
:0C349300E4F0901353E0FAA3E0FB7C008F
:0E349F00901351E0FDA3E0FE235401FF7037AF
:0E34AD00EECD25E0CD33FE901351EDF0A3EEF1
:0E34BB00F0901351E0FDA3E0FEC3EA9DEB9EEE
:0E34C9005011EEC313CD13CDFE901351EDF054
:0534D700A3EEF08008E7
:0834DC000C901355ECF080BBCD
:0534E400901355E0FA11
:0E34E900901353E0FBA3E0FC901351E0FDA311
:0E34F700E0FEC3EB9DEC9E400B901353EBC325
:063505009DF0EC9EA3F016
:0E350B00901351E0FBA3E0C313CB13CBFC9055
:0E3519001351EBF0A3ECF08A031AEB70C39091
:0B3527001353E0FAA3E08A82F5832230
:08003D007800E84400600A7934
:030045000075A0A3
:0600480010E4F309D8FCEE
:08004E007880E84403600C799E
:0B00560004901000E4F0A3D8FCD9FADD
:06353200C018858118128B
:0535380004B9D01822C7
:0E353D00AAF0AB83E582901357F0A3EBF0A346
:0E354B00EAF0901357E0FAA3E0FBA3E0FC9037
:0E3559001356E0FD90136AE4F0A3F0A3F09087
:0E356700136DEAF0A3EBF0A3ECF0901370EDFF
:07357500F0903532023681AF
:06357C00C018858118E56E
:0C3582001824FBFA90136AE4F0A3F0A3F5
:0C358E00F0E51824FBF890136DE6F0083F
:0D359A00A3E6F008A3E6F0901370EAF090AD
:0635A7003532123681D01E
:0235AD001822E2
:0E35AF00E582901366F0FA90135CE0C0E0A392
:0C35BD00E0C0E0A3E0C0E074D9C0E074FE
:0C35C90035C0E090135AE0C0E0A3E0C061
:0435D500E08A8222E4
:0E35D900158115811581901364E02401F0A383
:0535E700E03400F022B9
:0E35EC00E582901367F0FA74302AFA7439B54C
:0235FA000200CD
:0C35FC00500A74072AFA30010343022031
:053608008A820235AFCB
:0E360D00E582901368F0FAC4540FF582C002F3
:0D361B001235ECD00253020F8A820235EC0A
:0E362800E582901369F090135FE0FAA3E0FBD7
:0E363600A3E0FCA3E0FD901363E0FE90136997
:04364400E0FF78200B
:0E364800EE2EFEED235401F94206EA2AFAEBBB
:0C36560033FBEC33FCED33FDEEB5070058
:093662004007EEC39FFE43020184
:0E366B00D8DB90135FEAF0A3EBF0A3ECF0A322
:08367900EDF0901363EEF02266
:0D368100AA83E582901371F0A3CAF0FB90BC
:0E368E00135AEAF0A3EBF090136AE0FAA3E0FF
:0E369C00FBA3E0FC90135CEAF0A3EBF0A3ECC0
:0836AA00F0901364E4F0A3F0BA
:0E36B20090136DE0FAA3E0FBA3E0FC8A828B8C
:0E36C000838CF0123D92FD90136D74012AF080
:0D36CE00E43BA3F0A3ECF0ED7003023D6EB1
:0536DB00BD2502800383
:0336E000023D6642
:0536E300C202C203C297
:0436E80004C205C251
:0436EC0006C207C249
:0436F00008C2099073
:0936F4001373E4F0901374F090DC
:0E36FD00137574FFF090136DE0FAA3E0FBA3C9
:02370B00E0FCE0
:0E370D008A828B838CF0123D92FEA3AA82ABBF
:0D371B008390136DEAF0A3EBF0A3ECF090A7
:0D3728001377EEF0BE25088E821235AF0239
:0237350036B2AA
:053737008E07BF300009
:09373C0040408E077439B5070006
:0E3745004037901375E0FFBFFF21C002C003A4
:0E375300C004901374E075F00AA42E24D090E8
:0C3761001374F0D004D003D00270A1D289
:03376D0003809D39
:0E377000EF75F00AA42E24D0901375F0808F10
:0E377E00901377E0FEBE2E15901375E0FFBF8E
:04378C00FF028003B5
:0337900002370DF0
:08379300901375E4F002370DFC
:05379B008E07BF610074
:0937A00040148E07747AB507008D
:0C37A900400B90137774DF5EF0D20180BB
:0137B5000211
:0237B600C2014E
:0A37B800901377E0FEBE200280555A
:0537C200BE2B02804B4C
:0537C700BE2D0280414F
:0537CC00BE4202804B2B
:0537D100BE4302805020
:0637D600BE44030239FAB3
:0637DC00BE4603023A1C88
:0637E200BE49030239FAA2
:0537E800BE4C0280341C
:0637ED00BE4F03023A0486
:0637F300BE500302396A1A
:0537F900BE5302805FD9
:0637FE00BE5503023A0C67
:06380400BE5803023A1455
:03380A00023A205F
:05380D00D20202370D9C
:05381200D20402370D95
:05381700D20502370D8F
:05381C00D20702370D88
:05382100D20802370D82
:0B382600300712901370E0FA14F890C5
:0A3831001370F0901377E6F0801694
:0E383B00901370E024FEF8901370F0860208DF
:08384900860318901377EAF0E2
:0A385100901377E0F5821235AF0204
:02385B003A2C05
:0E385D00901370E024FDF8901370F0860208BE
:0E386B008603088604181890135FEAF0A3EB9A
:0E387900F0A3ECF08A828B838CF0123D7AAAC9
:0E38870082901375E0FBBBFF05901375EAF00D
:0C389500200237901374E0FBEAB503003A
:0E38A100502C901374EBC39AF0901374E0FB5C
:0E38AF008B041B901374EBF0EC6010758220FC
:0D38BD00C002C0031235AFD003D00280E579
:0538CA00901374EBF007
:0538CF00901375E0FB01
:0E38D400C00290135FE0FCA3E0FFA3E0FA8CBB
:0C38E200828F838AF0123D92F512D00212
:0C38EE00E512603E8B041BC374808CF05C
:0C38FA0063F08095F0502FC00285128210
:0E390600C002C0031235AFD003D00290135F91
:0D391400E0FCA3E0FFA3E0FA0CBC00010FF3
:0E39210090135FECF0A3EFF0A3EAF0D0028069
:01392F00A4F3
:06393000200203023A2C04
:09393600901374E0FBEAB50300F4
:05393F004003023A2CD8
:0C394400901374EBC39AF0901374E0FA37
:0E3950008A031A901374EAF0EB7003023A2710
:0C395E00758220C0021235AFD00280E656
:0E396A00901370E024FDF8901370F0860308AF
:0E3978008604088607181890135FEBF0A3EC86
:0C398600F0A3EFF0901361E0FBBB8000A9
:0A39920040089013777443F0802082
:03399C00BB60000D
:0A399F0040089013777450F0801375
:0339A900BB400020
:0A39AC0040089013777449F080067C
:0639B6009013777458F035
:0E39BC00901377E0FBF582C0031235AF7582E1
:0E39CA003A1235AF7582301235AF7582781221
:0939D80035AFD003BB4902800E9B
:0539E100BB500280094B
:0939E600901360E0F58212360D29
:0B39EF0090135FE0F58212360D80326D
:0A39FA00D206901373740AF08028BF
:083A04009013737408F0802098
:083A0C00901373740AF0801896
:083A14009013737410F0801090
:043A1C00D209800C3F
:073A20008E821235AF800514
:053A2700901374EAF0A9
:0B3A2C00300972901370E024FCF89049
:0E3A37001370F08602088603088604088606CF
:0E3A450018181890135FEAF0A3EBF0A3ECF052
:0B3A5300A3EEF090135F7476F0A374F4
:063A5E003FF0A37480F0AC
:093A640090135FE0F513A3E0F5F7
:083A6D0014A3E0F51574012516
:073A750013FEE43514FFAA63
:0C3A7C001590135FEEF0A3EFF0A3EAF04A
:073A8800851382851483857C
:093A8F0015F0123D92FA700302D9
:023A980036B244
:073A9A008A821235AF80C3E0
:093AA100901373E0F513700302A9
:023AAA0036B232
:083AAC0090137E747DF0A374F9
:063AB40013F030074790FB
:0E3ABA001370E014F8901370F0E6FB3395E003
:0E3AC800FCFEFF90135FEBF0A3ECF0A3EEF01A
:093AD600A3EFF0300603023B727D
:0E3ADF0090135FE0FBA3E0A3E0A3E07C007E79
:0E3AED00007F0090135FEBF0A3ECF0A3EEF06F
:053AFB00A3EFF0807252
:0B3B0000300829901370E024FCF890BE
:0E3B0B001370F08603088604088606088607F5
:0E3B190018181890135FEBF0A3ECF0A3EEF079
:053B2700A3EFF0804651
:0E3B2C00901370E024FEF8901370F0860308EA
:0E3B3A00860418EC3395E0FEFF90135FEBF06D
:0C3B4800A3ECF0A3EEF0A3EFF020061EAB
:0E3B540090135FE0FBA3E0FCA3E0A3E07E0083
:0E3B62007F0090135FEBF0A3ECF0A3EEF0A356
:023B7000EFF074
:0C3B720030063090135FE0FBA3E0FCA3E2
:0E3B7E00E0FEA3E0FF30E71DC3E49BFBE49CE8
:0E3B8C00FCE49EFEE49FFF90135FEBF0A3ECC1
:093B9A00F0A3EEF0A3EFF08002AD
:023BA300C20658
:043BA500D20A7516B5
:033BA9007D751710
:043BAC00137512007B
:093BB000901363E4F08513821206
:063BB9003628200A2D90C1
:093BBF001363E0C4FF8516828542
:0A3BC8001783E0FA42078516828594
:093BD2001783EFF0151674FFB51E
:043BDB0016021517A2
:083BDF0090137EE516F0A3E54A
:043BE70017F0800C47
:093BEB00901363E0FF851682854A
:033BF4001783F044
:063BF7000512901376E5B3
:053BFD0012F0B20A9075
:0E3C0200135FE0FFA3E0FAA3E0FEA3E0FBEFF8
:0C3C10004A4E4B709B90137EE516F0A30B
:073C1C00E517F0901376E5B7
:0A3C230012F0901374E0FA7006909E
:053C2D0013747401F0A6
:073C3200200328200225E514
:083C39001204FA901374E0FB81
:043C4100EAB50300DD
:0E3C45005011758220C002C0031235AFD003AB
:053C5300D0021B80E916
:053C5800901374EBF075
:0A3C5D0030061175822D1235AF906C
:0A3C67001374E014901374F0802D24
:0C3C7100901376E0FA6026300411758292
:0A3C7D002B1235AF901374E0149081
:053C87001374F080122F
:0A3C8C0030050F7582201235AF904D
:083C96001374E014901374F0A4
:093C9E00200230901376E0FA9048
:043CA7001374E0FBB7
:0C3CAB008B041B901374EBF0EAB50400CE
:093CB70050373003047C30800218
:023CC0007C2066
:0E3CC2008C82C002C0031235AFD003D0028046
:013CD000DA19
:0D3CD100901374E0FA901376E0FCB5020049
:0B3CDE005009901374EAC39CF0800CA6
:073CE900901374E4F0800564
:053CF000901374EBF0DD
:0D3CF50090137EE0FAA3E0FB901376E0FC54
:0A3D02008C061CEE603EB20A200A97
:063D0C00140ABA00010BCD
:0E3D12008A828B83E0C4540FFE901363F0800E
:013D20000E94
:0E3D21008A828B83E0FE53060F901363EEF050
:0D3D2F00901363E0F582C002C003C00412CF
:0A3D3C0035ECD004D003D00280BCA7
:063D46002002030236B268
:053D4C00901374E0FA81
:093D51008A031AEB70030236B27A
:0C3D5A00758220C0021235AFD00280EB51
:083D66008D821235AF0236B266
:0C3D6E00901364E0FAA3E08A82F583223F
:0B3F76003C4E4F20464C4F41543E0093
:043D7A00AA82AB83EB
:083D7E00123D926003A380F8DE
:0C3D8600C3E5829AF582E5839BF5832259
:03000800758121DE
:0A000B00123DAEE58260030200031F
:0E3D920020F71430F6148883A88220F507E687
:063DA000A88375830022D8
:033DA600E280F7C1
:033DA900E493227E
:023DAC00E02213
:043DAE0075820022F8
:00000001FF
