:03000000020008F3
:0300610002000397
:0500030012006480FE04
:0E00640012047012091BAA82AB83C002C003F3
:0E007200120DD2AC82AD83D003D002EC2AFA7C
:0E008000ED3BFBC002C003121910AC82AD8331
:0E008E00D003D002EC2AFAED3BFBC002C00307
:0E009C001219DFAC82AD83D003D002EC2AFA39
:0C00AA00ED3BFBC002C0037428C0E074F2
:0C00B60025C0E07480C0E0121CF2E5815F
:0400C20024FBF581A5
:0200C60080FEBA
:0E252800256420746573747320656E206572DF
:052536007265757200E2
:0E00C80090125BE0FAA3E0FB8A828B83A3E038
:0800D600FA530203BA03EB2206
:0A00DE00E582901000F01200C890B7
:0C00E800125BE0FAA3E0FB0ABA00010B77
:0A00F400901000E08A828B83F02256
:0A00FE00E582901002F01200C89095
:0E010800125BE0FAA3E0FB901001E08A828B0C
:0E01160083F01200C890125BE0FAA3E0FB0A2F
:04012400BA00010B11
:0A012800901002E08A828B83F0221F
:0A013200E582901005F01200C8905D
:0E013C00125BE0FAA3E0FB901003E08A828BD6
:0E014A0083F01200C890125BE0FAA3E0FB9075
:0C0158001004E08A828B83F01200C89033
:0C016400125BE0FAA3E0FB0ABA00010BFA
:0A017000901005E08A828B83F022D4
:0A017A00E582901008F0901009745F
:0A01840006F0A37410F0A3E4F012DB
:0B018E0000C890125BE0FAA3E0FB90B9
:0E0199001009E0FCA3E0FDA3E0FE8C828D8344
:0E01A7008EF01225088A828B83F0C004C005FA
:0E01B500C0061200C8D006D005D00490125B20
:0A01C300E0FAA3E0FB0CBC00010D04
:0E01CD008C828D838EF01225088A828B83F03F
:0E01DB001200C890125BE0FAA3E0FB0ABA0023
:0201E900010B08
:0A01EB00901008E08A828B83F02256
:0D01F500AA83E58290100DF0A3CAF0FB90E4
:0E0202001006EAF0A3EBF075822412017A9048
:0B021000100CE0901001F07582C0029D
:02021B0000FEE3
:0D021D00AA83E58290100FF0A3CAF0FB90B9
:0E022A001006EAF0A3EBF075822412017A753B
:0E02380082C11200DE90125BE0FAA3E0FB8AA6
:07024600828B83E0F58222A8
:0E024D0090125BE0FAA3E0FB8A828B83A3E0B1
:08025B00FA530208BA08EB2275
:0D026300AA83E582901016F0A3CAF0FB906C
:0E0270001006EAF0A3EBF075822412017A75F5
:0D027E0082B01200DE901018E4F0A3F090A2
:0E028B001011E0FAA3E0FBA3E0FC901014E0D9
:04029900FDA3E0FEE3
:0E029D00901018E0FFA3E0F8C3EF9DE89E501C
:0E02AB0062C005C006901016E02401F0A3E02A
:0E02B9003400F0C002C003C004C005C006C07F
:0E02C70007C00012024DD000D007D006D005AF
:0C02D500D004D003D00290125BE0F508CA
:0C02E100A3E0F509EF2AFEE83BFD8C01CC
:0C02ED008E828D8389F01225088508821E
:0C02F900850983F090101874012FF0E4C8
:0903050038A3F0D006D005808F6A
:0E030E007582B21200DE901016E0FAA3E08AAB
:04031C0082F58322C1
:0D032000AA83E58290101DF0A3CAF0FB90A7
:0E032D001006EAF0A3EBF075822412017A7537
:0D033B0082B01200DE90101FE4F0A3F090DD
:0C034800101AE0FA90101BE0FBA3E0FC90
:0E03540090101FE0FDA3E0FEC3ED9BEE9C5059
:0E0362003E90101DE02401F0A3E03400F0C036
:0E03700002C003C004C005C00612024DD00634
:0E037E00D005D004D003D00290125BE0FFA3A4
:0E038C00E0F88F828883EAF090101F74012D34
:07039A00F0E43EA3F080B384
:0E03A1007582B21200DE90101DE0FAA3E08A11
:0403AF0082F583222E
:0E03B300E582901022F0901021E075F01EA45B
:0E03C100FAABF0901022E0FC7D00EC2AFAED81
:0603CF003B8A82F5832247
:0C03D500E582901025F0FA901023E090D3
:0D03E1001021F08A821203B3AA82AB839030
:0C03EE001024E090100CF08A828B830237
:0203FA0001F50B
:0C03FC00E582901027F0FA901026E090A7
:0B0408001021F08A821203B3AB8302C4
:02041300021DC8
:0E041500901006E4F0A3F075824012017A9078
:0E0423001006E4F0A37402F075824212017A12
:0E0431009010037403F0901004E4F075822222
:0A043F00120132901003741EF090B9
:0B0449001004E4F075824112013290B3
:0E0454001003741EF0901004E4F07582431241
:0C046200013275829C1200DE758280025F
:02046E0000DEAE
:0225F0000020C9
:030470000204156E
:0E047300E582901029F0FA7B00901028E075C9
:0E048100F01EA490125D2AF0EB35F0A3F022DD
:0D048F00E58290102AF0FABAE0030205544D
:06049C00BAE90302052E7F
:0504A200BA090280729E
:0504A700BA0A02800802
:0504AC00BA0D028019E9
:0304B10002057AC7
:0E04B40090125DE0FBA3E0FC90125D741E2B25
:0804C200F0E43CA3F002059FE9
:0E04CA0090125DE0FBA3E0FC901219741EF08E
:0E04D800A3E4F08B828C83C0021219E2E5824D
:0E04E6008583F090125DF0A3E5F0F090125DBA
:0E04F400E0FBA3E0FC901222EBF0A3ECF090F2
:0D050200001E121B09E5828583F0D00290D7
:0A050F00125DF0A3E5F0F002059F75
:0E05190090125DE0FBA3E0FC90125D74032BDA
:07052700F0E43CA3F0807139
:0E052E0090125DE0FBA3E0FC90125D74012BC7
:0E053C00F0E43CA3F090100C7462F08B828C03
:0A054A0083C0021201F5D002804BBD
:0E05540090125DE0FBA3E0FC90125D74012BA1
:0E056200F0E43CA3F090100C7465F08B828CDA
:0A05700083C0021201F5D0028025BD
:0E057A0090125DE0FBA3E0FC90125D74012B7B
:0E058800F0E43CA3F0EA24E090100CF08B822B
:090596008C83C0021201F5D002B1
:03059F008A82222B
:0225F2000000E7
:0D05A200AA83E582901030F0A3CAF0FB9010
:0E05AF00102BE0FCA3E0FDEAB50406EBB50559
:0305BD0002802F8A
:0E05C000C002C003C004C00590102DE0C0E0D2
:0C05CE00A3E0C0E0A3E0C0E0743BC0E08C
:0C05DA007425C0E07480C0E0121CF2E543
:0905E6008124F6F5819000012248
:0405EF009000002256
:0D05F300AA83E582901037F0A3CAF0FB90B8
:0E0600001032E0FCA3E0FDEAB5042FEBB505D7
:0E060E002BC004C005901034E0C0E0A3E0C093
:0A061C00E0A3E0C0E07457C0E074F2
:0C06260025C0E07480C0E0121CF2E581E9
:0806320024F8F581900001227B
:04063A00900000220A
:0E253B0025733A20617474656E647520256402
:0E2549002C2074726F7576E92025640D0A004F
:0E25570025733A206E652064657672616974A2
:0E25650020706173206567616C206120256421
:032573000D0A004E
:0C063E00E582901133F090125FE0FA2486
:07064A0039FBE43410FC90C1
:0E0651001133E08B828C83F090125FEA04F08C
:01065F002278
:0B066000901260E0FA2439F582E434C7
:09066B0010F583E0901134F090C9
:0C0674001260EA04F0901134E0F58222DC
:0A06800090125FE4F0901260F02287
:0E068A0075820112063E120660E582FA339573
:0E069800E0FB90102B7401F0A3E4F090102D05
:0A06A6007476F0A37425F0A37480AD
:0E06B000F08A828B831205A2AA82AB83758228
:0E06BE0014C002C00312063E75821E12063ED4
:0E06CC0075822812063E120660E582FC339508
:0E06DA00E0FD90102B7414F0A3E4F090102DAE
:0A06E800747CF0A37425F0A3748065
:0E06F200F08C828D831205A2AC82AD83D00302
:0D070000D002EC2AFAED3BFBC002C0031250
:0E070D000660E582FC3395E0FD90102B741E13
:0C071B00F0A3E4F090102D7482F0A374A1
:0B07270025F0A37480F08C828D8312FB
:0E07320005A2AC82AD83D003D002EC2AFAED12
:0E0740003BFBC002C003120660E582FC33954D
:0E074E00E0FD90102B7428F0A3E4F090102D25
:0A075C007482F0A37425F0A37480EA
:0E076600F08C828D831205A2AC82AD83D0038D
:0C077400D002EC2AFAED3B8A82F58322C9
:0D07800075820E12063E75820F12063E12A3
:09078D00068075821012063E126E
:0E0796000660E582FA3395E0FB90102B74109C
:0C07A400F0A3E4F090102D7488F0A37412
:0B07B00025F0A37480F08A828B830286
:0207BB0005A295
:0A07BD00120680901135E4F0A3F05D
:0E07C700901135E0FAA3E0FBC3EA94FAEB646C
:0E07D50080948050289012287414F0A3E4F051
:0E07E3008A828B83C002C003121B9512063E51
:0E07F100D003D00290113574012AF0E43BA32E
:0307FF00F080C5C2
:07080200901135E4F0A3F0B2
:0E080900901135E0FAA3E0FBC3EA94FAEB6429
:0E081700809480506EC002C003120660AC8256
:0E082500D003D002EC3395E0FD90122874143D
:0E083300F0A3E4F08A828B83C002C003C004ED
:0E084100C005121B95AE82AF83D005D0049087
:0B084F00102BEEF0A3EFF090102D74C2
:0A085A008FF0A37425F0A37480F062
:0E0864008C828D831205A2E5828583F0D0037D
:0A087200D00245F06004900001225E
:0E087C0090113574012AF0E43BA3F002080944
:04088A0090000022B8
:09088E00901137747DF0A3E4F031
:0E089700901137E0FAA3E0FBC3EA94F4EB649F
:0E08A500809481506D9012287414F0A3E4F03A
:0E08B3008A828B83C002C003121B95AC82ADFB
:0D08C100838C068E82C004C00512063E1214
:0E08CE000660AE82D005D004EE3395E0FF90B8
:0B08DC00102BECF0A3EDF090102D7439
:0A08E70096F0A37425F0A37480F0CE
:0E08F1008E828F831205A2E5828583F0D003EC
:0A08FF00D00245F0600490000122D1
:0E09090090113774012AF0E43BA3F002089726
:04091700900000222A
:0E091B0012068AAA82AB83C002C003120780B4
:0E092900AC82AD83D003D002EC2AFAED3BFB8A
:0E093700C002C0031207BDAC82AD83D003D056
:0E09450002EC2AFAED3BFBC002C00312088E42
:0E095300AC82AD83D003D002EC2AFAED3B8AD1
:0409610082F5832276
:0625760042465F30310017
:06257C0042465F30320010
:0625820042465F30330009
:072588004246435F303100C1
:07258F0042464C5F303100B1
:0725960042464C5F303200A9
:0125F40000E6
:0125F50000E5
:0E096500AAF0AB83E582901139F0A3EBF0A36A
:0E097300EAF0901139E0FAA3E0FBA3E0FC8A61
:0E098100828B838CF0122508FD0ABA00010B50
:0E098F008A828B838CF0122508901026F08D42
:04099D00820203FCD3
:0E09A100AAF0AB83E58290113CF0A3EBF0A32B
:0E09AF00EAF0901143E4F0A3F090114174FFC0
:0C09BD00F0A3F090113CE0F510A3E0F571
:0809C90011A3E0F512740125F1
:0709D10010FDE43511FEAF3B
:0309D80012851075
:0309DB000A851179
:0309DE000B851274
:0309E1000C851072
:0309E4000D85116D
:0309E7000E851268
:0109EA000FFD
:0E09EB00901141E0F8A3E0F9C3E89401E9643B
:0809F9008094804003020B5FB3
:0C0A0100E849706890113F74FFF0A3F00A
:0E0A0D0090113FE0FAA3E0FBC3EA9401EB6412
:080A1B008094804003020B509F
:070A23008510828511838517
:0C0A2A0012F0122508FA8D828E838FF0E6
:0E0A3600122508901026F08A82C005C006C066
:0E0A4400071203FCAA82D007D006D005BA2103
:0D0A52000C901143E02401F0A3E03400F00B
:0E0A5F0090113FE02401F0A3E03400F080A0ED
:080A6D00B80105B90002800286
:020A750080748B
:080A770090113F74FFF0A3F0A1
:0E0A7F0090113FE0FAA3E0FBC3EA9401EB64A0
:080A8D008094804003020B502D
:070A9500850A82850B8385B1
:0C0A9C000CF0122508FC8D828E838FF078
:0E0AA800122508901026F08C82C002C003C0F8
:0E0AB60005C006C0071203FCAC82D007D006B4
:0E0AC400D005D003D002BC2110EA4B600C908C
:0B0AD2001143E02401F0A3E03400F029
:0E0ADD0090113FE02401F0A3E03400F080947B
:080AEB0090113F74FFF0A3F02D
:0E0AF30090113FE0FAA3E0FBC3EA9401EB642C
:0A0B0100809480504A850D82850E15
:0C0B0B0083850FF0122508FA8D828E837E
:0E0B17008FF0122508901026F08A82C005C0CB
:0E0B250006C0071203FCAA82D007D006D00536
:0E0B3300BA210C901143E02401F0A3E034003D
:010B4100F0C3
:0E0B420090113FE02401F0A3E03400F080A306
:0D0B5000901141E02401F0A3E03400F00218
:020B5D0009EBA2
:0E0B5F0090113CE0FAA3E0FBA3E0FC74022A34
:0D0B6D00FDE43BFE8C078D828E838FF0121D
:0E0B7A002508FDBD0122901143E0FEA3E0FF1F
:0E0B8800BE0317BF001474032AFEE43BFF8C6B
:0C0B9600008E828F8388F07402021AF037
:0E0BA200ED7028901143E0FDA3E0FEBD0204BB
:040BB000BE00012260
:070BB400BD0304BE00012295
:0E0BBB0074032AFAE43BFB8A828B838CF0746D
:040BC90001021AF01B
:010BCD002205
:0E0BCE00AAF0AB83E582901145F0A3EBF0A3F3
:0E0BDC00EAF0901145E0FAA3E0FBA3E0FC7400
:0E0BEA00022AFDE43BFE8C0774032AFAE43B6A
:0E0BF800FB8A828B838CF01225088D828E83FF
:050C06008FF0021AF05E
:0E0C0B00AAF0AB83E582901148F0A3EBF0A3B2
:0E0C1900EAF0901148E0FAA3E0FBA3E0FC8AA9
:0E0C2700828B838CF0122508FDBDFD047582C2
:020C350001229A
:0E0C370074012AFDE43BFE8C078D828E838FB4
:0C0C4500F0122508FDBDFE04758203229C
:070C5100BDFB0475820422C3
:0E0C580074022AFAE43BFB8A828B838CF01232
:0A0C66002508FABAFD047582022287
:040C70007582002267
:0D0C740090114B74FFF090114C74FFF09044
:0C0C8100114D74FFF090114E74FFF090C4
:0D0C8D00114B75F000120C0BAA827B009039
:0A0C9A00102BE4F0A3F090102D746D
:0A0CA4009DF0A37425F0A37480F006
:0E0CAE008A828B831205A2AA82AB8390114B1F
:0E0CBC0074FDF075F000C002C003120C0BAC0A
:0D0CCA00827D0090102B7401F0A3E4F090E7
:070CD700102D74A3F0A374BB
:0B0CDE0025F0A37480F08C828D83123F
:0E0CE90005A2AC82AD83D003D002EC2AFAED56
:0E0CF7003BFB90114B74FFF090114C74FEF01B
:0E0D050090114B75F000C002C003120C0BAC35
:0D0D1300827D0090102B7403F0A3E4F0909B
:070D2000102D74A9F0A3746B
:0B0D270025F0A37480F08C828D8312F5
:0E0D320005A2AC82AD83D003D002EC2AFAED0C
:0E0D40003BFB90114C74FBF090114B75F000D2
:0E0D4E00C002C003120C0BAC827D0090102B73
:0C0D5C007404F0A3E4F090102D74AFF0CC
:0C0D6800A37425F0A37480F08C828D83AE
:0E0D74001205A2AC82AD83D003D002EC2AFAA5
:0E0D8200ED3BFB90114C74FFF090114D74FD91
:0E0D9000F090114B75F000C002C003120C0B66
:0E0D9E00AC827D0090102B7402F0A3E4F09064
:070DAC00102D74B5F0A374D3
:0B0DB30025F0A37480F08C828D831269
:0E0DBE0005A2AC82AD83D003D002EC2AFAED80
:060DCC003B8A82F5832240
:030DD200020C749C
:06259D004B42303031001A
:0625A3004B423030320013
:0625A9004B42303033000C
:0625AF004B423030340005
:0625B5004B4230303500FE
:0E0DD5009010217409F07582121203B3AA82E5
:0E0DE300AB8390101A7403F090101B740CF088
:0E0DF100A3E4F08A828B8312032090114FE45A
:010DFF00F003
:080E000090114FE0FABA050061
:0E0E0800506D901021740A2AF0758212C002FB
:0E0E16001203B3AB82AC8390100C7403F08B0C
:0E0E2400828C83C003C0041201F5D004D003F9
:070E3200D0020BBB00010C14
:0E0E390090101A740EF090101B740AF0A3E4CF
:0E0E4700F08B828C83C002C003C00412032013
:0E0E5500D004D003740A2BFBE43CFC90100C7C
:0D0E63007403F08B828C831201F5D0029095
:070E7000114FEA04F0808934
:0E0E7700901021740FF07582121203B3AA823C
:0E0E8500AB8390101A7403F090101B740CF0E5
:0A0E9300A3E4F08A828B830203209F
:0E0E9D00AAF0AB83E582901153F0A3EBF0A313
:0E0EAB00EAF0901158E4F0A3F0901157E4F033
:0B0EB900901153E0FAA3E0FBA3E0FC63
:080EC400901157E0FDBD05008F
:050ECC004003020FAB22
:0E0ED100901156E4F0EDFE75F00BA42AFFE43C
:080EDF003BF88C01740A2DFDA3
:0C0EE700901156E0F513C3940A4003027A
:020EF3000FA14D
:0C0EF500C002C003C004E5132FFAE4386B
:0E0F0100FB89048A828B838CF012250824E081
:0C0F0F00FA74132513FB901026EDF08BF4
:0E0F1B0082C002C004C005C006C007C000C0EE
:0E0F2900011203FCAB82D001D000D007D0062D
:0E0F3700D005D004D002EBB50208D004D003E0
:040F4500D002804E08
:0C0F4900D004D003C003C00474132513AF
:0E0F5500FA901023740A2EF09010247438F0D5
:0E0F63008A82C002C003C004C005C006C007D9
:0E0F7100C000C0011203D5D001D000D007D0BF
:0E0F7F0006D005D004D003D0029011587401A2
:0A0F8D00F0A3E4F0D004D003D0027A
:0A0F9700901156E02401F0020EE76D
:0A0FA100901157E02401F0020EC485
:0E0FAB00901158E0FAA3E0FB4A602BC002C090
:0E0FB90003901150E0C0E0A3E0C0E0A3E0C050
:0A0FC700E074BBC0E07425C0E074C4
:0E0FD10080C0E0121CF2E58124FAF581D00305
:020FDF00D0023E
:050FE1008A828B8322CF
:0E25BB00457272657572206264642025730D8E
:0225C9000A0006
:0E0FE600E58290115BF075F008A4FAABF07C88
:0E0FF4000090115AE075F008A4FD741825F065
:0D100200FE901011EAF0A3EBF0A3ECF090CB
:0D100F0010147408F0A3E4F08D828E8302AB
:02101C0002636D
:0D101E0090115A7421F0758200120FE690B7
:0C102B00115A7422F0758201120FE69039
:0C103700115A7425F0758202120FE69029
:0C104300115A7424F0758203120FE6901D
:0B104F00115A7412F0758204020FE6C3
:0D105A00E58290115FF0FA90115CE0FB90D0
:0E1067001023F09010247412F08A82C002C090
:0C107500031203D5D00390115DE0FC9045
:0E1081001023EBF09010247412F08C82C00348
:0E108F00C0041203D5D004D003D0029011602B
:03109D00EA04F072
:0810A000901160E0FDB50400B1
:0E10A8005028901023EBF09010247412F08D5D
:0E10B60082C002C003C004C0051203D5D005DD
:0E10C400D004D003D002901160ED04F080CE75
:0A10D20090115EE0FD901023F090F5
:0E10DC0010247412F08A82C002C003C004C047
:0E10EA00051203D5D005D004901023EDF09030
:0E10F80010247412F08C82C004C0051203D5BF
:0E110600D005D004D003D002901160EA04F0AE
:08111400901160E0FEB504003B
:0E111C00502C901023EDF09010247412F08EE1
:0E112A0082C002C003C004C005C0061203D577
:0E113800D006D005D004D003D002901160EE96
:0411460004F080CA67
:06114A00901161EB04F0BE
:08115000901161E0FBB5050000
:0E1158005048901023EBF09010247412F08C8D
:0E11660082C002C003C004C0051203D5D0052C
:0E117400D004D003D002901023EBF090102492
:0E1182007412F08A82C002C003C004C00512BD
:0E11900003D5D005D004D003D002901161EB3E
:04119E0004F080AE2B
:0111A200222A
:0C11A300E582901165F0FA901166F09062
:0911AF001162E0FB901163E0FC09
:0911B800901166E0FDECB50500A4
:0E11C1004027901023EBF0901024E4F08D8274
:0E11CF00C002C003C004C0051203D5D005D075
:0D11DD0004D003D002901166ED04F080CE26
:0A11EA00901166EAF0901164E0FD38
:0911F400901166E0FEECB5060066
:0E11FD00402B901023EDF0901024E4F08E8231
:0E120B00C002C003C004C005C0061203D5D047
:0E12190006D005D004D003D002901166EE047A
:03122700F080CA8A
:09122A00901167EB04F0EA04FBEB
:08123300901167E0FEB5050013
:03123B004001224D
:0E123E00901023EEF0901024E4F08C82C00299
:0E124C00C003C004C005C0061203D5D006D0F2
:0D125A0005D004D003D002901023EEF090D8
:0E1267001024E4F08A82C002C003C004C00557
:0E127500C0061203D5D006D005D004D003D099
:0612830002901166EBF081
:08128900901166E0FFB50400BE
:0E129100502F901023EEF0901024E4F08F8286
:0D129F00C002C003C004C005C006C0071295
:0E12AC0003D5D007D006D005D004D003D00261
:0812BA00901166EF04F080C7FB
:0A12C200901167E02401F0021233DE
:0E12CC00E58290116CF090116EE4F0A3F090AA
:0E12DA001169E0FAA3E0FBA3E0FC8A828B839B
:0E12E8008CF01224F0AA8290116CE0FB2A0414
:0E12F600FA901168E0FC2402FD901023ECF049
:0E1304009010247412F08B82C002C003C0044B
:0E131200C0051203D5D005D004D003D0029040
:0E1320001023ECF09010247412F08A82C002A8
:0E132E00C003C004C0051203D5D005D004D002
:09133C0003D00290116DEB04F0E6
:0813450090116DE0FEB50200FD
:0E134D00502C901023ECF09010247412F08EAF
:0E135B0082C002C003C004C005C0061203D544
:0E136900D006D005D004D003D00290116DEE56
:0413770004F080CA34
:0E137B00901023EDF09010247412F08B82C0BD
:0E13890002C003C004C0051203D5D005D00475
:0E139700D003D002901023EDF09010247412B9
:0E13A500F08A82C002C003C004C0051203D546
:0E13B300D005D004D003D00290116DEB04F0F1
:0813C10090116DE0FEB5020081
:0E13C900502C901023EDF09010247412F08E32
:0E13D70082C002C003C004C005C0061203D5C8
:0E13E500D006D005D004D003D00290116DEEDA
:0413F30004F080CAB8
:0E13F700EC04FD901023F09010247412F08A84
:0E14050082C002C003C004C0051203D5D0058A
:0E141300D004D003901023EDF090102474123A
:0E142100F08B82C003C0041203D5D004D003A8
:0C142F00D00290116DEB04F0EC04F514F9
:09143B00901169E0F515A3E0F53C
:0514440016A3E0F517FE
:0814490090116DE0FFB50200F7
:0E1451005055C00290116EE0F8A3E0F9E825B6
:07145F0015FAE93516FBAC9C
:0C146600178A828B838CF012250824E08A
:08147200FA901023E514F0903C
:0E147A001024EAF08F82C002C007C000C0013B
:0E1488001203D5D001D000D007D00290116E13
:0E149600740128F0E439A3F090116DEF04F01A
:0414A400D00280A151
:0114A8002221
:0D14A9009011707432F09011717432F09057
:0C14B60011727432F09011737432F090D7
:0C14C20011747432F09011757432F090C7
:0C14CE0011767432F09011777432F090B7
:0C14DA0011787432F09011797432F090A7
:0B14E600117AE4F090117B7432F0905A
:0C14F100117C742EF090117D742EF09090
:0C14FD00117E742EF090117F742EF09080
:0C1509001180742EF0901181742EF0906F
:0C1515001182742EF0901183742EF0905F
:0B15210011847432F0901185E4F0900A
:0C152C0011867432F0901187742EF0903C
:0C1538001188742EF0901189742EF09030
:0C154400118A742EF090118B742EF09020
:0C155000118C742EF090118D742EF09010
:0C155C00118E742EF090118F7432F090FC
:0B1568001190E4F09011917432F090AB
:0C1573001192742EF0901193742EF090E1
:0C157F001194742EF0901195742EF090D1
:0C158B001196742EF0901197742EF090C1
:0C1597001198742EF0901199742EF090B1
:0B15A300119A7432F090119BE4F0905C
:0C15AE00119C7432F090119D7432F0908A
:0C15BA00119E7432F090119F7432F0907A
:0C15C60011A07432F09011A17432F0906A
:0C15D20011A27432F09011A37432F0905A
:0C15DE0011A47432F09011A57432F0904A
:0815EA0011A6E4F0120DD590EA
:0C15F200115C740AF090115D741CF09004
:0C15FE00115E740EF075821312105A90EA
:07160A00115074CBF0A37432
:0C16110025F0A37480F090117075F000BB
:03161D00020E9D1D
:0D1620009011A7742EF09011A8742EF09078
:0C162D0011A9742EF09011AA742EF090F8
:0C16390011AB742EF09011AC742EF090E8
:0C16450011AD742EF09011AE742EF090D8
:0C16510011AF742EF09011B0742EF090C8
:0B165D0011B1E4F09011B2742EF09077
:0C16680011B37420F09011B47420F090C5
:0C16740011B57420F09011B67420F090B5
:0C16800011B77420F09011B87420F090A5
:0C168C0011B97420F09011BA7420F09095
:0B16980011BB742EF09011BCE4F09028
:0C16A30011BD742EF09011BE7420F09068
:0C16AF0011BF7420F09011C07420F09066
:0C16BB0011C17420F09011C27420F09056
:0C16C70011C37420F09011C47420F09046
:0C16D30011C57420F09011C6742EF09028
:0B16DF0011C7E4F09011C8742EF090C9
:0C16EA0011C97420F09011CA7420F09017
:0C16F60011CB7420F09011CC7420F09007
:0C17020011CD7420F09011CE7420F090F6
:0C170E0011CF7420F09011D07420F090E6
:0B171A0011D1742EF09011D2E4F09079
:0C17250011D3742EF09011D4742EF090AB
:0C17310011D5742EF09011D6742EF0909B
:0C173D0011D7742EF09011D8742EF0908B
:0C17490011D9742EF09011DA742EF0907B
:0C17550011DB742EF09011DC742EF0906B
:0817610011DDE4F0120DD5903A
:0C1769001162740BF0901163741BF0907F
:0C1775001164740DF07582141211A39021
:07178100115074D0F0A374B5
:0C17880025F0A37480F09011A775F0000C
:03179400020E9DA5
:0D1797009011DE742EF09011DF742EF09092
:0C17A40011E0742EF09011E1742EF09012
:0C17B00011E2742EF09011E3742EF09002
:0C17BC0011E4742EF09011E5742EF090F2
:0C17C80011E6742EF09011E7742EF090E2
:0B17D40011E8E4F09011E9742EF09091
:0C17DF0011EA7432F09011EB7432F090BB
:0C17EB0011EC7432F09011ED7432F090AB
:0C17F70011EE7432F09011EF7432F0909B
:0C18030011F07432F09011F1742EF0908E
:0B180F0011F2742EF09011F3E4F09041
:0C181A0011F4742EF09011F57432F0906F
:0C18260011F67420F09011F77454F0904B
:0C18320011F87458F09011F97454F09003
:0C183E0011FA7420F09011FB7432F0904D
:0C184A0011FC742EF09011FD742EF09033
:0B18560011FEE4F09011FF742EF090E2
:0C18610012007432F09012017432F0900A
:0C186D0012027432F09012037432F090FA
:0C18790012047432F09012057432F090EA
:0C18850012067432F0901207742EF090DE
:0B1891001208742EF0901209E4F09091
:0C189C00120A742EF090120B742EF090C3
:0C18A800120C742EF090120D742EF090B3
:0C18B400120E742EF090120F742EF090A3
:0C18C0001210742EF0901211742EF09093
:0C18CC001212742EF0901213742EF09083
:0818D8001214E4F0120DD5908A
:0918E0001168740BF09011697499
:0A18E900D5F0A37425F0A37480F07D
:0A18F3007582141212CC901150748B
:0A18FD00DBF0A37425F0A37480F063
:091907009011DE75F000020E9D46
:0E1910001214A9AA82AB83C002C003121620D3
:0E191E00AC82AD83D003D002EC2AFAED3BFB85
:0E192C00C002C003121797AC82AD83D003D067
:0B193A0002EC2AFAED3B8A82F58322C2
:0525CB00474D424400F1
:0525D000474D424300ED
:0625D500205458542000C0
:0525DB00474D425400D1
:0D194500AA83E582901217F0A3CAF0FB9070
:071952001215E0FCA3E0FD0B
:0E195900C002C003C004C005121A7CAE82D0CA
:0E19670005D004D003D0028E077800C3EF9A9B
:0E197500E864808BF063F08095F040D8EC9F22
:0E198300ED648088F063F08095F040CA8E829B
:011991002233
:0D1992009012157464F0A3E4F090000112AF
:0E199F001945AA829012157464F0A3E4F0902A
:0E19AD000001C002121945AB82D002EA339548
:0E19BB00E0FCEB3395E0FD901032EBF0A3ED75
:0919C900F090103474E0F0A374F6
:0B19D20025F0A37480F08A828C830251
:0219DD0005F310
:0319DF0002199258
:0525E0005254523100CD
:0E19E200AA83E58290121BF0A3EAF090121D7A
:0E19F000E4F0A3F0901219E0FAA3E0FB7C10E3
:0C19FE0090121BE0FDA3E0FE339200EE0F
:0E1A0A00CD25E0CD33FE90121BEDF0A3EEF0E3
:0E1A180090121DE0FDA3E0CD25E0CD33FE9041
:0B1A2600121DEDF0A3EEF03000129056
:0E1A3100121DE0FDA3E0FE90121D74014DF0A9
:031A3F00A3EEF023
:0E1A420090121DE0FDA3E0FEC3ED9AEE9B4066
:0D1A50001D90121DEDC39AF0EE9BA3F090C7
:0E1A5D00121BE0FDA3E0FE90121B74014DF081
:031A6B00A3EEF0F7
:0E1A6E00DC8E90121BE0FAA3E08A82F5832240
:0E1A7C00901261E0FAA3E0FBA3E0FCA3E0FD02
:0E1A8A00901224EAF0A3EBF0A3ECF0A3EDF031
:0E1A9800904E6D75F0C67441121B29AA82ABE8
:0E1AA60083ACF0FD90126174392AF074303B6D
:0E1AB400A3F0E43CA3F0E43DA3F0901261E047
:0E1AC200A3E0A3E0FCA3E0FD8C028D03530320
:061AD0007F8A828B832255
:0D1AD600AA83E58290121FF0A3CAF0FB90D6
:0D1AE3001261EAF0A3EBF0A3E4F0A3F022FF
:0425F60001000000E0
:06003700E478FFF6D8FD9D
:08001500790AE94400601B7A3E
:05001D00019025F078C0
:030022005B75A06B
:0A00250012E493F2A308B8000205EC
:08002F00A0D9F4DAF275A0FF7C
:0E1AF00020F71030F6118883A88220F507F643
:051AFE00A883758300C0
:011B030022BF
:031B0400F280F775
:021B0700F022CA
:0E1B0900AA83AB828BF0901222E0A4F8A9F020
:0E1B17008AF0E0A429F98BF0A3E0A429F5835D
:041B2500888222226E
:0E1B2900A882A983AAF0FB88F0901224E0A401
:0E1B3700FCADF089F0E0A42DFDE435F0FE8851
:0E1B4500F0A3E0A42DFDE5F03EFEE433FF89A1
:0E1B5300F0E0A42EFEE5F03FFF88F0A3E0A432
:0E1B61002EFEE5F03FFF8AF0901224E0A42E45
:0E1B6F00FEE5F03FFF8BF0E0A42FFF8AF0A30D
:0E1B7D00E0A42FFF89F0A3E0A42FFF88F0A3BF
:0A1B8B00E0A42F8EF08D838C8222DF
:0E1B9500AA83E58290122AF0A3CAF0FB33E483
:0D1BA30033FC6009C3E49AFDE49BFE80045E
:041BB0008A058B0611
:0E1BB4008D028E03901228E0FDA3E0FE30E7C4
:0A1BC20009C3E49DFFE49EF88004CF
:041BCC008D078E00F3
:0E1BD00090122CEFF0A3E8F08A828B83C00401
:0E1BDE00121BFBAA82AB83D004EC600CC3E4A4
:0A1BEC009AFCE49BFD8C828D83229D
:051BF6008A828B8322AE
:0E1BFB00AA83E58290122EF0A3EAF090123039
:0C1C0900E4F090122EE0FAA3E0FB7C0057
:0E1C150090122CE0FDA3E0FE235401FF703777
:0E1C2300EECD25E0CD33FE90122CEDF0A3EEB9
:0E1C3100F090122CE0FDA3E0FEC3EA9DEB9EB6
:0E1C3F005011EEC313CD13CDFE90122CEDF01C
:051C4D00A3EEF0800889
:081C52000C901230ECF080BB95
:051C5A00901230E0FAD9
:0E1C5F0090122EE0FBA3E0FC90122CE0FDA3FF
:0E1C6D00E0FEC3EB9DEC9E400B90122EEBC3ED
:061C7B009DF0EC9EA3F0B9
:0E1C810090122CE0FBA3E0C313CB13CBFC901E
:0E1C8F00122CEBF0A3ECF08A031AEB70C3905A
:0B1C9D00122EE0FAA3E08A82F58322F9
:08003D007800E84400600A7934
:030045000075A0A3
:0600480010E4F309D8FCEE
:08004E00785BE84402600C79C4
:0B00560003901000E4F0A3D8FCD9FADE
:061CA800C01E85811E1222
:051CAE00048FD01E228E
:0E1CB300AAF0AB83E582901232F0A3EBF0A30F
:0E1CC100EAF0901232E0FAA3E0FBA3E0FC9000
:0E1CCF001231E0FD901245E4F0A3F0A3F09076
:0E1CDD001248EAF0A3EBF0A3ECF090124BEDEE
:071CEB00F0901CA8021DF798
:061CF200C01E85811EE505
:0C1CF8001E24FBFA901245E4F0A3F0A3B8
:0C1D0400F0E51E24FBF8901248E6F00801
:0D1D1000A3E6F008A3E6F090124BEAF09075
:061D1D001CA8121DF7D006
:021D23001E227E
:0E1D2500E582901241F0FA901237E0C0E0A380
:0C1D3300E0C0E0A3E0C0E0744FC0E0742A
:0C1D3F001DC0E0901235E0C0E0A3E0C041
:041D4B00E08A822286
:0E1D4F0015811581158190123FE02401F0A34B
:051D5D00E03400F0225B
:0E1D6200E582901242F0FA74302AFA7439B514
:021D700002006F
:0C1D7200500A74072AFA300103430220D3
:051D7E008A82021D2510
:0E1D8300E582901243F0FAC4540FF582C002BC
:0D1D9100121D62D00253020F8A82021D62F1
:0E1D9E00E582901244F090123AE0FAA3E0FBC6
:0E1DAC00A3E0FCA3E0FD90123EE0FE90124486
:041DBA00E0FF7820AE
:0E1DBE00EE2EFEED235401F94206EA2AFAEB5E
:0C1DCC0033FBEC33FCED33FDEEB50700FB
:091DD8004007EEC39FFE43020127
:0E1DE100D8DB90123AEAF0A3EBF0A3ECF0A3EB
:081DEF00EDF090123EEEF0222F
:0D1DF700AA83E58290124CF0A3CAF0FB9085
:0E1E04001235EAF0A3EBF0901245E0FAA3E0ED
:0E1E1200FBA3E0FC901237EAF0A3EBF0A3EC88
:081E2000F090123FE4F0A3F082
:0E1E2800901248E0FAA3E0FBA3E0FC8A828B54
:0E1E3600838CF0122508FD90124874012AF0EA
:0D1E4400E43BA3F0A3ECF0ED70030224E4F6
:051E5100BD2502800325
:031E56000224DC87
:051E5900C202C203C239
:041E5E0004C205C2F3
:041E620006C207C2EB
:041E660008C2099015
:091E6A00124EE4F090124FF090CA
:0E1E7300125074FFF0901248E0FAA3E0FBA3B7
:021E8100E0FC83
:0E1E83008A828B838CF0122508FEA3AA82AB04
:0D1E910083901248EAF0A3EBF0A3ECF09070
:0D1E9E001252EEF0BE25088E82121D2502A4
:021EAB001E28EF
:051EAD008E07BF3000AC
:091EB20040408E077439B50700A9
:0E1EBB004037901250E0FFBFFF21C002C0036D
:0E1EC900C00490124FE075F00AA42E24D090B1
:0C1ED700124FF0D004D003D00270A1D252
:031EE30003809DDC
:0E1EE600EF75F00AA42E24D0901250F0808FD9
:0E1EF400901252E0FEBE2E15901250E0FFBF7D
:041F0200FF02800357
:031F0600021E8335
:081F0900901250E4F0021E8367
:051F11008E07BF610016
:091F160040148E07747AB507002F
:0C1F1F00400B90125274DF5EF0D2018083
:011F2B0002B3
:021F2C00C201F0
:0A1F2E00901252E0FEBE2002805522
:051F3800BE2B02804BEE
:051F3D00BE2D028041F1
:051F4200BE4202804BCD
:051F4700BE43028050C2
:061F4C00BE4403022170F7
:061F5200BE4603022192CD
:061F5800BE4903022170E6
:051F5E00BE4C028034BE
:061F6300BE4F0302217ACB
:061F6900BE50030220E05F
:051F6F00BE5302805F7B
:061F7400BE5503022182AC
:061F7A00BE580302218A9B
:031F8000022196A5
:051F8300D202021E83E2
:051F8800D204021E83DB
:051F8D00D205021E83D5
:051F9200D207021E83CE
:051F9700D208021E83C8
:0B1F9C0030071290124BE0FA14F8908E
:0A1FA700124BF0901252E6F0801683
:0E1FB10090124BE024FEF890124BF0860208CE
:081FBF00860318901252EAF0AB
:0A1FC700901252E0F582121D25026F
:021FD10021A24B
:0E1FD30090124BE024FDF890124BF0860208AD
:0E1FE1008603088604181890123AEAF0A3EB63
:0E1FEF00F0A3ECF08A828B838CF01224F0AA0F
:0E1FFD0082901250E0FBBBFF05901250EAF0FC
:0C200B0020023790124FE0FBEAB5030002
:0E201700502C90124FEBC39AF090124FE0FB4A
:0E2025008B041B90124FEBF0EC6010758220C4
:0D203300C002C003121D25D003D00280E5BD
:0520400090124FEBF0CF
:05204500901250E0FBC9
:0E204A00C00290123AE0FCA3E0FFA3E0FA8C83
:0C205800828F838AF0122508F518D00250
:0C206400E518603E8B041BC374808CF0F8
:0C20700063F08095F0502FC002851882AC
:0E207C00C002C003121D25D003D00290123AFC
:0D208A00E0FCA3E0FFA3E0FA0CBC00010F96
:0E20970090123AECF0A3EFF0A3EAF0D0028032
:0120A500A496
:0620A6002002030221A24A
:0920AC0090124FE0FBEAB50300BD
:0520B50040030221A21E
:0C20BA0090124FEBC39AF090124FE0FA26
:0E20C6008A031A90124FEAF0EB700302219D7C
:0C20D400758220C002121D25D00280E69B
:0E20E00090124BE024FDF890124BF08603089E
:0E20EE008604088607181890123AEBF0A3EC4F
:0C20FC00F0A3EFF090123CE0FBBB800072
:0A21080040089012527443F080204A
:03211200BB6000AF
:0A21150040089012527450F080133D
:03211F00BB4000C2
:0A21220040089012527449F0800644
:06212C009012527458F0FD
:0E213200901252E0FBF582C003121D2575824B
:0E2140003A121D25758230121D257582781207
:09214E001D25D003BB4902800EDF
:05215700BB50028009ED
:09215C0090123BE0F582121D8394
:0B21650090123AE0F582121D838032D8
:0A217000D20690124E740AF0802887
:08217A0090124E7408F0802061
:0821820090124E740AF080185F
:08218A0090124E7410F0801059
:04219200D209800CE2
:072196008E82121D25800559
:05219D0090124FEAF072
:0B21A20030097290124BE024FCF89012
:0E21AD00124BF0860208860308860408860698
:0E21BB0018181890123AEAF0A3EBF0A3ECF01B
:0B21C900A3EEF090123A74E5F0A3744E
:0621D40025F0A37480F069
:0921DA0090123AE0F519A3E0F5BA
:0821E3001AA3E0F51B740125AD
:0721EB0019FEE4351AFFAAFA
:0C21F2001B90123AEEF0A3EFF0A3EAF00D
:0721FE00851982851A838513
:092205001BF0122508FA70030217
:02220E001E2888
:072210008A82121D2580C324
:0922170090124EE0F5197003026B
:022220001E2876
:082222009012597458F0A374E6
:06222A0012F0300747909E
:0E223000124BE014F890124BF0E6FB3395E0F1
:0E223E00FCFEFF90123AEBF0A3ECF0A3EEF0E2
:09224C00A3EFF03006030222E8C2
:0E22550090123AE0FBA3E0A3E0A3E07C007E41
:0E226300007F0090123AEBF0A3ECF0A3EEF037
:05227100A3EFF08072F4
:0B22760030082990124BE024FCF89087
:0E228100124BF08603088604088606088607BE
:0E228F0018181890123AEBF0A3ECF0A3EEF042
:05229D00A3EFF08046F4
:0E22A20090124BE024FEF890124BF0860308D9
:0E22B000860418EC3395E0FEFF90123AEBF036
:0C22BE00A3ECF0A3EEF0A3EFF020061E4E
:0E22CA0090123AE0FBA3E0FCA3E0A3E07E004C
:0E22D8007F0090123AEBF0A3ECF0A3EEF0A31F
:0222E600EFF017
:0C22E80030063090123AE0FBA3E0FCA3AB
:0E22F400E0FEA3E0FF30E71DC3E49BFBE49C8B
:0E230200FCE49EFEE49FFF90123AEBF0A3EC89
:09231000F0A3EEF0A3EFF080024F
:02231900C206FA
:04231B00D20A751C51
:03231F0058751DD1
:042322001275180018
:0923260090123EE4F085198212C8
:06232F001D9E200A2D9006
:09233500123EE0C4FF851C828504
:0A233E001D83E0FA4207851C82852A
:092348001D83EFF0151C74FFB5B4
:042351001C02151D38
:08235500901259E51CF0A3E50C
:04235D001DF0800CE3
:0923610090123EE0FF851C82850C
:03236A001D83F0E0
:06236D000518901251E575
:0523730018F0B20A9011
:0E237800123AE0FFA3E0FAA3E0FEA3E0FBEFC1
:0C2386004A4E4B709B901259E51CF0A3CE
:07239200E51DF0901251E57A
:0A23990018F090124FE0FA70069061
:0523A300124F7401F06F
:0723A800200328200225E5B7
:0823AF001804FA90124FE0FB44
:0423B700EAB5030080
:0E23BB005011758220C002C003121D25D003F0
:0523C900D0021B80E9B9
:0523CE0090124FEBF03E
:0A23D30030061175822D121D2590B1
:0A23DD00124FE01490124FF0802D13
:0C23E700901251E0FA602630041175825B
:0A23F3002B121D2590124FE01490EC
:0523FD00124FF08012F8
:0A24020030050F758220121D259091
:08240C00124FE01490124FF092
:09241400200230901251E0FA9010
:04241D00124FE0FB7F
:0C2421008B041B90124FEBF0EAB5040096
:09242D0050373003047C308002BA
:022436007C2008
:0E2438008C82C002C003121D25D003D002808A
:01244600DABB
:0D24470090124FE0FA901251E0FCB5020037
:0B245400500990124FEAC39CF0800C6E
:07245F0090124FE4F080052C
:0524660090124FEBF0A5
:0D246B00901259E0FAA3E0FB901251E0FC42
:0A2478008C061CEE603EB20A200A3A
:06248200140ABA00010B70
:0E2488008A828B83E0C4540FFE90123EF080D7
:012496000E37
:0E2497008A828B83E0FE53060F90123EEEF019
:0D24A50090123EE0F582C002C003C0041298
:0A24B2001D62D004D003D00280BCEC
:0624BC00200203021E28AD
:0524C20090124FE0FA4A
:0924C7008A031AEB7003021E28BF
:0C24D000758220C002121D25D00280EB96
:0824DC008D82121D25021E284D
:0C24E40090123FE0FAA3E08A82F5832208
:0B25E5003C4E4F20464C4F41543E003E
:0424F000AA82AB838E
:0824F4001225086003A380F823
:0C24FC00C3E5829AF582E5839BF58322FC
:03000800758121DE
:0A000B00122524E5826003020003C1
:0E25080020F71430F6148883A88220F507E629
:06251600A883758300227A
:03251C00E280F763
:03251F00E4932220
:02252200E022B5
:04252400758200229A
:00000001FF
